{
	"contracts/Trigger.sol": {
		"Item": {
			"abi": [
				{
					"inputs": [
						{
							"internalType": "contract ItemManager",
							"name": "_parentContract",
							"type": "address"
						},
						{
							"internalType": "uint256",
							"name": "_priceInWei",
							"type": "uint256"
						},
						{
							"internalType": "uint256",
							"name": "_index",
							"type": "uint256"
						}
					],
					"stateMutability": "nonpayable",
					"type": "constructor"
				},
				{
					"inputs": [],
					"name": "index",
					"outputs": [
						{
							"internalType": "uint256",
							"name": "",
							"type": "uint256"
						}
					],
					"stateMutability": "view",
					"type": "function"
				},
				{
					"inputs": [],
					"name": "priceInWei",
					"outputs": [
						{
							"internalType": "uint256",
							"name": "",
							"type": "uint256"
						}
					],
					"stateMutability": "view",
					"type": "function"
				},
				{
					"stateMutability": "payable",
					"type": "receive"
				}
			],
			"devdoc": {
				"kind": "dev",
				"methods": {},
				"version": 1
			},
			"evm": {
				"assembly": "    /* \"contracts/Trigger.sol\":27:375  contract Item {\r... */\n  mstore(0x40, 0x80)\n    /* \"contracts/Trigger.sol\":136:327  constructor(ItemManager _parentContract , uint _priceInWei, uint _index) public {\r... */\n  callvalue\n  dup1\n  iszero\n  tag_1\n  jumpi\n  0x00\n  dup1\n  revert\ntag_1:\n  pop\n  mload(0x40)\n  sub(codesize, bytecodeSize)\n  dup1\n  bytecodeSize\n  dup4\n  codecopy\n  dup2\n  dup2\n  add\n  0x40\n  mstore\n  dup2\n  add\n  swap1\n  tag_2\n  swap2\n  swap1\n  tag_3\n  jump\t// in\ntag_2:\n    /* \"contracts/Trigger.sol\":240:251  _priceInWei */\n  dup2\n    /* \"contracts/Trigger.sol\":227:237  priceInWei */\n  0x00\n    /* \"contracts/Trigger.sol\":227:251  priceInWei = _priceInWei */\n  dup2\n  swap1\n  sstore\n  pop\n    /* \"contracts/Trigger.sol\":270:276  _index */\n  dup1\n    /* \"contracts/Trigger.sol\":262:267  index */\n  0x01\n    /* \"contracts/Trigger.sol\":262:276  index = _index */\n  dup2\n  swap1\n  sstore\n  pop\n    /* \"contracts/Trigger.sol\":304:319  _parentContract */\n  dup3\n    /* \"contracts/Trigger.sol\":287:301  parentContract */\n  0x02\n  0x00\n    /* \"contracts/Trigger.sol\":287:319  parentContract = _parentContract */\n  0x0100\n  exp\n  dup2\n  sload\n  dup2\n  0xffffffffffffffffffffffffffffffffffffffff\n  mul\n  not\n  and\n  swap1\n  dup4\n  0xffffffffffffffffffffffffffffffffffffffff\n  and\n  mul\n  or\n  swap1\n  sstore\n  pop\n    /* \"contracts/Trigger.sol\":136:327  constructor(ItemManager _parentContract , uint _priceInWei, uint _index) public {\r... */\n  pop\n  pop\n  pop\n    /* \"contracts/Trigger.sol\":27:375  contract Item {\r... */\n  jump(tag_6)\n    /* \"#utility.yul\":7:188   */\ntag_8:\n    /* \"#utility.yul\":83:88   */\n  0x00\n    /* \"#utility.yul\":114:120   */\n  dup2\n    /* \"#utility.yul\":108:121   */\n  mload\n    /* \"#utility.yul\":99:121   */\n  swap1\n  pop\n    /* \"#utility.yul\":130:182   */\n  tag_10\n    /* \"#utility.yul\":176:181   */\n  dup2\n    /* \"#utility.yul\":130:182   */\n  tag_11\n  jump\t// in\ntag_10:\n    /* \"#utility.yul\":7:188   */\n  swap3\n  swap2\n  pop\n  pop\n  jump\t// out\n    /* \"#utility.yul\":194:337   */\ntag_12:\n    /* \"#utility.yul\":251:256   */\n  0x00\n    /* \"#utility.yul\":282:288   */\n  dup2\n    /* \"#utility.yul\":276:289   */\n  mload\n    /* \"#utility.yul\":267:289   */\n  swap1\n  pop\n    /* \"#utility.yul\":298:331   */\n  tag_14\n    /* \"#utility.yul\":325:330   */\n  dup2\n    /* \"#utility.yul\":298:331   */\n  tag_15\n  jump\t// in\ntag_14:\n    /* \"#utility.yul\":194:337   */\n  swap3\n  swap2\n  pop\n  pop\n  jump\t// out\n    /* \"#utility.yul\":343:1044   */\ntag_3:\n    /* \"#utility.yul\":450:456   */\n  0x00\n    /* \"#utility.yul\":458:464   */\n  dup1\n    /* \"#utility.yul\":466:472   */\n  0x00\n    /* \"#utility.yul\":515:517   */\n  0x60\n    /* \"#utility.yul\":503:512   */\n  dup5\n    /* \"#utility.yul\":494:501   */\n  dup7\n    /* \"#utility.yul\":490:513   */\n  sub\n    /* \"#utility.yul\":486:518   */\n  slt\n    /* \"#utility.yul\":483:602   */\n  iszero\n  tag_17\n  jumpi\n    /* \"#utility.yul\":521:600   */\n  tag_18\n  tag_19\n  jump\t// in\ntag_18:\n    /* \"#utility.yul\":483:602   */\ntag_17:\n    /* \"#utility.yul\":641:642   */\n  0x00\n    /* \"#utility.yul\":666:749   */\n  tag_20\n    /* \"#utility.yul\":741:748   */\n  dup7\n    /* \"#utility.yul\":732:738   */\n  dup3\n    /* \"#utility.yul\":721:730   */\n  dup8\n    /* \"#utility.yul\":717:739   */\n  add\n    /* \"#utility.yul\":666:749   */\n  tag_8\n  jump\t// in\ntag_20:\n    /* \"#utility.yul\":656:749   */\n  swap4\n  pop\n    /* \"#utility.yul\":612:759   */\n  pop\n    /* \"#utility.yul\":798:800   */\n  0x20\n    /* \"#utility.yul\":824:888   */\n  tag_21\n    /* \"#utility.yul\":880:887   */\n  dup7\n    /* \"#utility.yul\":871:877   */\n  dup3\n    /* \"#utility.yul\":860:869   */\n  dup8\n    /* \"#utility.yul\":856:878   */\n  add\n    /* \"#utility.yul\":824:888   */\n  tag_12\n  jump\t// in\ntag_21:\n    /* \"#utility.yul\":814:888   */\n  swap3\n  pop\n    /* \"#utility.yul\":769:898   */\n  pop\n    /* \"#utility.yul\":937:939   */\n  0x40\n    /* \"#utility.yul\":963:1027   */\n  tag_22\n    /* \"#utility.yul\":1019:1026   */\n  dup7\n    /* \"#utility.yul\":1010:1016   */\n  dup3\n    /* \"#utility.yul\":999:1008   */\n  dup8\n    /* \"#utility.yul\":995:1017   */\n  add\n    /* \"#utility.yul\":963:1027   */\n  tag_12\n  jump\t// in\ntag_22:\n    /* \"#utility.yul\":953:1027   */\n  swap2\n  pop\n    /* \"#utility.yul\":908:1037   */\n  pop\n    /* \"#utility.yul\":343:1044   */\n  swap3\n  pop\n  swap3\n  pop\n  swap3\n  jump\t// out\n    /* \"#utility.yul\":1131:1227   */\ntag_25:\n    /* \"#utility.yul\":1168:1175   */\n  0x00\n    /* \"#utility.yul\":1197:1221   */\n  tag_27\n    /* \"#utility.yul\":1215:1220   */\n  dup3\n    /* \"#utility.yul\":1197:1221   */\n  tag_28\n  jump\t// in\ntag_27:\n    /* \"#utility.yul\":1186:1221   */\n  swap1\n  pop\n    /* \"#utility.yul\":1131:1227   */\n  swap2\n  swap1\n  pop\n  jump\t// out\n    /* \"#utility.yul\":1233:1348   */\ntag_29:\n    /* \"#utility.yul\":1289:1296   */\n  0x00\n    /* \"#utility.yul\":1318:1342   */\n  tag_31\n    /* \"#utility.yul\":1336:1341   */\n  dup3\n    /* \"#utility.yul\":1318:1342   */\n  tag_25\n  jump\t// in\ntag_31:\n    /* \"#utility.yul\":1307:1342   */\n  swap1\n  pop\n    /* \"#utility.yul\":1233:1348   */\n  swap2\n  swap1\n  pop\n  jump\t// out\n    /* \"#utility.yul\":1354:1480   */\ntag_28:\n    /* \"#utility.yul\":1391:1398   */\n  0x00\n    /* \"#utility.yul\":1431:1473   */\n  0xffffffffffffffffffffffffffffffffffffffff\n    /* \"#utility.yul\":1424:1429   */\n  dup3\n    /* \"#utility.yul\":1420:1474   */\n  and\n    /* \"#utility.yul\":1409:1474   */\n  swap1\n  pop\n    /* \"#utility.yul\":1354:1480   */\n  swap2\n  swap1\n  pop\n  jump\t// out\n    /* \"#utility.yul\":1486:1563   */\ntag_33:\n    /* \"#utility.yul\":1523:1530   */\n  0x00\n    /* \"#utility.yul\":1552:1557   */\n  dup2\n    /* \"#utility.yul\":1541:1557   */\n  swap1\n  pop\n    /* \"#utility.yul\":1486:1563   */\n  swap2\n  swap1\n  pop\n  jump\t// out\n    /* \"#utility.yul\":1692:1809   */\ntag_19:\n    /* \"#utility.yul\":1801:1802   */\n  0x00\n    /* \"#utility.yul\":1798:1799   */\n  dup1\n    /* \"#utility.yul\":1791:1803   */\n  revert\n    /* \"#utility.yul\":1815:1975   */\ntag_11:\n    /* \"#utility.yul\":1907:1950   */\n  tag_39\n    /* \"#utility.yul\":1944:1949   */\n  dup2\n    /* \"#utility.yul\":1907:1950   */\n  tag_29\n  jump\t// in\ntag_39:\n    /* \"#utility.yul\":1900:1905   */\n  dup2\n    /* \"#utility.yul\":1897:1951   */\n  eq\n    /* \"#utility.yul\":1887:1969   */\n  tag_40\n  jumpi\n    /* \"#utility.yul\":1965:1966   */\n  0x00\n    /* \"#utility.yul\":1962:1963   */\n  dup1\n    /* \"#utility.yul\":1955:1967   */\n  revert\n    /* \"#utility.yul\":1887:1969   */\ntag_40:\n    /* \"#utility.yul\":1815:1975   */\n  pop\n  jump\t// out\n    /* \"#utility.yul\":1981:2103   */\ntag_15:\n    /* \"#utility.yul\":2054:2078   */\n  tag_42\n    /* \"#utility.yul\":2072:2077   */\n  dup2\n    /* \"#utility.yul\":2054:2078   */\n  tag_33\n  jump\t// in\ntag_42:\n    /* \"#utility.yul\":2047:2052   */\n  dup2\n    /* \"#utility.yul\":2044:2079   */\n  eq\n    /* \"#utility.yul\":2034:2097   */\n  tag_43\n  jumpi\n    /* \"#utility.yul\":2093:2094   */\n  0x00\n    /* \"#utility.yul\":2090:2091   */\n  dup1\n    /* \"#utility.yul\":2083:2095   */\n  revert\n    /* \"#utility.yul\":2034:2097   */\ntag_43:\n    /* \"#utility.yul\":1981:2103   */\n  pop\n  jump\t// out\n    /* \"contracts/Trigger.sol\":27:375  contract Item {\r... */\ntag_6:\n  dataSize(sub_0)\n  dup1\n  dataOffset(sub_0)\n  0x00\n  codecopy\n  0x00\n  return\nstop\n\nsub_0: assembly {\n        /* \"contracts/Trigger.sol\":27:375  contract Item {\r... */\n      mstore(0x40, 0x80)\n      jumpi(tag_1, lt(calldatasize, 0x04))\n      shr(0xe0, calldataload(0x00))\n      dup1\n      0x2986c0e5\n      eq\n      tag_3\n      jumpi\n      dup1\n      0x3c8da588\n      eq\n      tag_4\n      jumpi\n      jump(tag_2)\n    tag_1:\n      jumpi(tag_2, calldatasize)\n      stop\n    tag_2:\n      0x00\n      dup1\n      revert\n        /* \"contracts/Trigger.sol\":77:94  uint public index */\n    tag_3:\n      callvalue\n      dup1\n      iszero\n      tag_7\n      jumpi\n      0x00\n      dup1\n      revert\n    tag_7:\n      pop\n      tag_8\n      tag_9\n      jump\t// in\n    tag_8:\n      mload(0x40)\n      tag_10\n      swap2\n      swap1\n      tag_11\n      jump\t// in\n    tag_10:\n      mload(0x40)\n      dup1\n      swap2\n      sub\n      swap1\n      return\n        /* \"contracts/Trigger.sol\":48:70  uint public priceInWei */\n    tag_4:\n      callvalue\n      dup1\n      iszero\n      tag_12\n      jumpi\n      0x00\n      dup1\n      revert\n    tag_12:\n      pop\n      tag_13\n      tag_14\n      jump\t// in\n    tag_13:\n      mload(0x40)\n      tag_15\n      swap2\n      swap1\n      tag_11\n      jump\t// in\n    tag_15:\n      mload(0x40)\n      dup1\n      swap2\n      sub\n      swap1\n      return\n        /* \"contracts/Trigger.sol\":77:94  uint public index */\n    tag_9:\n      sload(0x01)\n      dup2\n      jump\t// out\n        /* \"contracts/Trigger.sol\":48:70  uint public priceInWei */\n    tag_14:\n      sload(0x00)\n      dup2\n      jump\t// out\n        /* \"#utility.yul\":7:125   */\n    tag_17:\n        /* \"#utility.yul\":94:118   */\n      tag_19\n        /* \"#utility.yul\":112:117   */\n      dup2\n        /* \"#utility.yul\":94:118   */\n      tag_20\n      jump\t// in\n    tag_19:\n        /* \"#utility.yul\":89:92   */\n      dup3\n        /* \"#utility.yul\":82:119   */\n      mstore\n        /* \"#utility.yul\":7:125   */\n      pop\n      pop\n      jump\t// out\n        /* \"#utility.yul\":131:353   */\n    tag_11:\n        /* \"#utility.yul\":224:228   */\n      0x00\n        /* \"#utility.yul\":262:264   */\n      0x20\n        /* \"#utility.yul\":251:260   */\n      dup3\n        /* \"#utility.yul\":247:265   */\n      add\n        /* \"#utility.yul\":239:265   */\n      swap1\n      pop\n        /* \"#utility.yul\":275:346   */\n      tag_22\n        /* \"#utility.yul\":343:344   */\n      0x00\n        /* \"#utility.yul\":332:341   */\n      dup4\n        /* \"#utility.yul\":328:345   */\n      add\n        /* \"#utility.yul\":319:325   */\n      dup5\n        /* \"#utility.yul\":275:346   */\n      tag_17\n      jump\t// in\n    tag_22:\n        /* \"#utility.yul\":131:353   */\n      swap3\n      swap2\n      pop\n      pop\n      jump\t// out\n        /* \"#utility.yul\":359:436   */\n    tag_20:\n        /* \"#utility.yul\":396:403   */\n      0x00\n        /* \"#utility.yul\":425:430   */\n      dup2\n        /* \"#utility.yul\":414:430   */\n      swap1\n      pop\n        /* \"#utility.yul\":359:436   */\n      swap2\n      swap1\n      pop\n      jump\t// out\n\n    auxdata: 0xa264697066735822122018a04f4802ffe105a96888734c0ea62fe8725d8b80f301350bd35f801c0c758f64736f6c63430008070033\n}\n",
				"bytecode": {
					"linkReferences": {},
					"object": "608060405234801561001057600080fd5b50604051610287380380610287833981810160405281019061003291906100b3565b816000819055508060018190555082600260006101000a81548173ffffffffffffffffffffffffffffffffffffffff021916908373ffffffffffffffffffffffffffffffffffffffff160217905550505050610187565b60008151905061009881610159565b92915050565b6000815190506100ad81610170565b92915050565b6000806000606084860312156100cc576100cb610154565b5b60006100da86828701610089565b93505060206100eb8682870161009e565b92505060406100fc8682870161009e565b9150509250925092565b60006101118261012a565b9050919050565b600061012382610106565b9050919050565b600073ffffffffffffffffffffffffffffffffffffffff82169050919050565b6000819050919050565b600080fd5b61016281610118565b811461016d57600080fd5b50565b6101798161014a565b811461018457600080fd5b50565b60f2806101956000396000f3fe60806040526004361060295760003560e01c80632986c0e51460345780633c8da58814605a57602f565b36602f57005b600080fd5b348015603f57600080fd5b5060466080565b604051605191906099565b60405180910390f35b348015606557600080fd5b50606c6086565b604051607791906099565b60405180910390f35b60015481565b60005481565b60938160b2565b82525050565b600060208201905060ac6000830184608c565b92915050565b600081905091905056fea264697066735822122018a04f4802ffe105a96888734c0ea62fe8725d8b80f301350bd35f801c0c758f64736f6c63430008070033",
					"opcodes": "PUSH1 0x80 PUSH1 0x40 MSTORE CALLVALUE DUP1 ISZERO PUSH2 0x10 JUMPI PUSH1 0x0 DUP1 REVERT JUMPDEST POP PUSH1 0x40 MLOAD PUSH2 0x287 CODESIZE SUB DUP1 PUSH2 0x287 DUP4 CODECOPY DUP2 DUP2 ADD PUSH1 0x40 MSTORE DUP2 ADD SWAP1 PUSH2 0x32 SWAP2 SWAP1 PUSH2 0xB3 JUMP JUMPDEST DUP2 PUSH1 0x0 DUP2 SWAP1 SSTORE POP DUP1 PUSH1 0x1 DUP2 SWAP1 SSTORE POP DUP3 PUSH1 0x2 PUSH1 0x0 PUSH2 0x100 EXP DUP2 SLOAD DUP2 PUSH20 0xFFFFFFFFFFFFFFFFFFFFFFFFFFFFFFFFFFFFFFFF MUL NOT AND SWAP1 DUP4 PUSH20 0xFFFFFFFFFFFFFFFFFFFFFFFFFFFFFFFFFFFFFFFF AND MUL OR SWAP1 SSTORE POP POP POP POP PUSH2 0x187 JUMP JUMPDEST PUSH1 0x0 DUP2 MLOAD SWAP1 POP PUSH2 0x98 DUP2 PUSH2 0x159 JUMP JUMPDEST SWAP3 SWAP2 POP POP JUMP JUMPDEST PUSH1 0x0 DUP2 MLOAD SWAP1 POP PUSH2 0xAD DUP2 PUSH2 0x170 JUMP JUMPDEST SWAP3 SWAP2 POP POP JUMP JUMPDEST PUSH1 0x0 DUP1 PUSH1 0x0 PUSH1 0x60 DUP5 DUP7 SUB SLT ISZERO PUSH2 0xCC JUMPI PUSH2 0xCB PUSH2 0x154 JUMP JUMPDEST JUMPDEST PUSH1 0x0 PUSH2 0xDA DUP7 DUP3 DUP8 ADD PUSH2 0x89 JUMP JUMPDEST SWAP4 POP POP PUSH1 0x20 PUSH2 0xEB DUP7 DUP3 DUP8 ADD PUSH2 0x9E JUMP JUMPDEST SWAP3 POP POP PUSH1 0x40 PUSH2 0xFC DUP7 DUP3 DUP8 ADD PUSH2 0x9E JUMP JUMPDEST SWAP2 POP POP SWAP3 POP SWAP3 POP SWAP3 JUMP JUMPDEST PUSH1 0x0 PUSH2 0x111 DUP3 PUSH2 0x12A JUMP JUMPDEST SWAP1 POP SWAP2 SWAP1 POP JUMP JUMPDEST PUSH1 0x0 PUSH2 0x123 DUP3 PUSH2 0x106 JUMP JUMPDEST SWAP1 POP SWAP2 SWAP1 POP JUMP JUMPDEST PUSH1 0x0 PUSH20 0xFFFFFFFFFFFFFFFFFFFFFFFFFFFFFFFFFFFFFFFF DUP3 AND SWAP1 POP SWAP2 SWAP1 POP JUMP JUMPDEST PUSH1 0x0 DUP2 SWAP1 POP SWAP2 SWAP1 POP JUMP JUMPDEST PUSH1 0x0 DUP1 REVERT JUMPDEST PUSH2 0x162 DUP2 PUSH2 0x118 JUMP JUMPDEST DUP2 EQ PUSH2 0x16D JUMPI PUSH1 0x0 DUP1 REVERT JUMPDEST POP JUMP JUMPDEST PUSH2 0x179 DUP2 PUSH2 0x14A JUMP JUMPDEST DUP2 EQ PUSH2 0x184 JUMPI PUSH1 0x0 DUP1 REVERT JUMPDEST POP JUMP JUMPDEST PUSH1 0xF2 DUP1 PUSH2 0x195 PUSH1 0x0 CODECOPY PUSH1 0x0 RETURN INVALID PUSH1 0x80 PUSH1 0x40 MSTORE PUSH1 0x4 CALLDATASIZE LT PUSH1 0x29 JUMPI PUSH1 0x0 CALLDATALOAD PUSH1 0xE0 SHR DUP1 PUSH4 0x2986C0E5 EQ PUSH1 0x34 JUMPI DUP1 PUSH4 0x3C8DA588 EQ PUSH1 0x5A JUMPI PUSH1 0x2F JUMP JUMPDEST CALLDATASIZE PUSH1 0x2F JUMPI STOP JUMPDEST PUSH1 0x0 DUP1 REVERT JUMPDEST CALLVALUE DUP1 ISZERO PUSH1 0x3F JUMPI PUSH1 0x0 DUP1 REVERT JUMPDEST POP PUSH1 0x46 PUSH1 0x80 JUMP JUMPDEST PUSH1 0x40 MLOAD PUSH1 0x51 SWAP2 SWAP1 PUSH1 0x99 JUMP JUMPDEST PUSH1 0x40 MLOAD DUP1 SWAP2 SUB SWAP1 RETURN JUMPDEST CALLVALUE DUP1 ISZERO PUSH1 0x65 JUMPI PUSH1 0x0 DUP1 REVERT JUMPDEST POP PUSH1 0x6C PUSH1 0x86 JUMP JUMPDEST PUSH1 0x40 MLOAD PUSH1 0x77 SWAP2 SWAP1 PUSH1 0x99 JUMP JUMPDEST PUSH1 0x40 MLOAD DUP1 SWAP2 SUB SWAP1 RETURN JUMPDEST PUSH1 0x1 SLOAD DUP2 JUMP JUMPDEST PUSH1 0x0 SLOAD DUP2 JUMP JUMPDEST PUSH1 0x93 DUP2 PUSH1 0xB2 JUMP JUMPDEST DUP3 MSTORE POP POP JUMP JUMPDEST PUSH1 0x0 PUSH1 0x20 DUP3 ADD SWAP1 POP PUSH1 0xAC PUSH1 0x0 DUP4 ADD DUP5 PUSH1 0x8C JUMP JUMPDEST SWAP3 SWAP2 POP POP JUMP JUMPDEST PUSH1 0x0 DUP2 SWAP1 POP SWAP2 SWAP1 POP JUMP INVALID LOG2 PUSH5 0x6970667358 0x22 SLT KECCAK256 XOR LOG0 0x4F BASEFEE MUL SELFDESTRUCT 0xE1 SDIV 0xA9 PUSH9 0x88734C0EA62FE8725D DUP12 DUP1 RETURN ADD CALLDATALOAD SIGNEXTEND 0xD3 0x5F DUP1 SHR 0xC PUSH22 0x8F64736F6C6343000807003300000000000000000000 "
				},
				"gasEstimates": {
					"creation": {
						"codeDepositCost": "48400",
						"executionCost": "infinite",
						"totalCost": "infinite"
					},
					"external": {
						"index()": "2407",
						"priceInWei()": "2429"
					}
				},
				"methodIdentifiers": {
					"index()": "2986c0e5",
					"priceInWei()": "3c8da588"
				}
			},
			"storageLayout": {
				"storage": [
					{
						"astId": 3,
						"contract": "contracts/Trigger.sol:Item",
						"label": "priceInWei",
						"offset": 0,
						"slot": "0",
						"type": "t_uint256"
					},
					{
						"astId": 5,
						"contract": "contracts/Trigger.sol:Item",
						"label": "index",
						"offset": 0,
						"slot": "1",
						"type": "t_uint256"
					},
					{
						"astId": 8,
						"contract": "contracts/Trigger.sol:Item",
						"label": "parentContract",
						"offset": 0,
						"slot": "2",
						"type": "t_contract(ItemManager)192"
					}
				],
				"types": {
					"t_contract(ItemManager)192": {
						"encoding": "inplace",
						"label": "contract ItemManager",
						"numberOfBytes": "20"
					},
					"t_uint256": {
						"encoding": "inplace",
						"label": "uint256",
						"numberOfBytes": "32"
					}
				}
			},
			"userdoc": {
				"kind": "user",
				"methods": {},
				"version": 1
			}
		}
	}
}