{
	"contracts/Trigger.sol": {
		"ItemManager": {
			"abi": [
				{
					"anonymous": false,
					"inputs": [
						{
							"indexed": false,
							"internalType": "uint256",
							"name": "_itemIndex",
							"type": "uint256"
						},
						{
							"indexed": false,
							"internalType": "uint256",
							"name": "_step",
							"type": "uint256"
						}
					],
					"name": "SupplyChainStep",
					"type": "event"
				},
				{
					"inputs": [
						{
							"internalType": "string",
							"name": "_identifier",
							"type": "string"
						},
						{
							"internalType": "uint256",
							"name": "_itemPrice",
							"type": "uint256"
						}
					],
					"name": "createItem",
					"outputs": [],
					"stateMutability": "nonpayable",
					"type": "function"
				},
				{
					"inputs": [
						{
							"internalType": "uint256",
							"name": "",
							"type": "uint256"
						}
					],
					"name": "items",
					"outputs": [
						{
							"internalType": "contract Item",
							"name": "_item",
							"type": "address"
						},
						{
							"internalType": "string",
							"name": "_identifier",
							"type": "string"
						},
						{
							"internalType": "uint256",
							"name": "_itemPrice",
							"type": "uint256"
						},
						{
							"internalType": "enum ItemManager.SupplyChainState",
							"name": "_state",
							"type": "uint8"
						}
					],
					"stateMutability": "view",
					"type": "function"
				},
				{
					"inputs": [
						{
							"internalType": "uint256",
							"name": "_itemIndex",
							"type": "uint256"
						}
					],
					"name": "triggerDelivery",
					"outputs": [],
					"stateMutability": "nonpayable",
					"type": "function"
				},
				{
					"inputs": [
						{
							"internalType": "uint256",
							"name": "_itemIndex",
							"type": "uint256"
						}
					],
					"name": "triggerPayment",
					"outputs": [],
					"stateMutability": "payable",
					"type": "function"
				}
			],
			"devdoc": {
				"kind": "dev",
				"methods": {},
				"version": 1
			},
			"evm": {
				"assembly": "    /* \"contracts/Trigger.sol\":387:1906  contract ItemManager{\r... */\n  mstore(0x40, 0x80)\n  callvalue\n  dup1\n  iszero\n  tag_1\n  jumpi\n  0x00\n  dup1\n  revert\ntag_1:\n  pop\n  dataSize(sub_0)\n  dup1\n  dataOffset(sub_0)\n  0x00\n  codecopy\n  0x00\n  return\nstop\n\nsub_0: assembly {\n        /* \"contracts/Trigger.sol\":387:1906  contract ItemManager{\r... */\n      mstore(0x40, 0x80)\n      jumpi(tag_1, lt(calldatasize, 0x04))\n      shr(0xe0, calldataload(0x00))\n      dup1\n      0x800fb83f\n      eq\n      tag_2\n      jumpi\n      dup1\n      0x8c551742\n      eq\n      tag_3\n      jumpi\n      dup1\n      0xbfb231d2\n      eq\n      tag_4\n      jumpi\n      dup1\n      0xcd31831e\n      eq\n      tag_5\n      jumpi\n    tag_1:\n      0x00\n      dup1\n      revert\n        /* \"contracts/Trigger.sol\":1194:1590  function triggerPayment(uint _itemIndex) public payable{\r... */\n    tag_2:\n      tag_6\n      0x04\n      dup1\n      calldatasize\n      sub\n      dup2\n      add\n      swap1\n      tag_7\n      swap2\n      swap1\n      tag_8\n      jump\t// in\n    tag_7:\n      tag_9\n      jump\t// in\n    tag_6:\n      stop\n        /* \"contracts/Trigger.sol\":741:1186  function createItem(string memory _identifier, uint _itemPrice) public{\r... */\n    tag_3:\n      callvalue\n      dup1\n      iszero\n      tag_10\n      jumpi\n      0x00\n      dup1\n      revert\n    tag_10:\n      pop\n      tag_11\n      0x04\n      dup1\n      calldatasize\n      sub\n      dup2\n      add\n      swap1\n      tag_12\n      swap2\n      swap1\n      tag_13\n      jump\t// in\n    tag_12:\n      tag_14\n      jump\t// in\n    tag_11:\n      stop\n        /* \"contracts/Trigger.sol\":618:654  mapping(uint => S_Item) public items */\n    tag_4:\n      callvalue\n      dup1\n      iszero\n      tag_15\n      jumpi\n      0x00\n      dup1\n      revert\n    tag_15:\n      pop\n      tag_16\n      0x04\n      dup1\n      calldatasize\n      sub\n      dup2\n      add\n      swap1\n      tag_17\n      swap2\n      swap1\n      tag_8\n      jump\t// in\n    tag_17:\n      tag_18\n      jump\t// in\n    tag_16:\n      mload(0x40)\n      tag_19\n      swap5\n      swap4\n      swap3\n      swap2\n      swap1\n      tag_20\n      jump\t// in\n    tag_19:\n      mload(0x40)\n      dup1\n      swap2\n      sub\n      swap1\n      return\n        /* \"contracts/Trigger.sol\":1598:1903  function triggerDelivery(uint _itemIndex) public{\r... */\n    tag_5:\n      callvalue\n      dup1\n      iszero\n      tag_21\n      jumpi\n      0x00\n      dup1\n      revert\n    tag_21:\n      pop\n      tag_22\n      0x04\n      dup1\n      calldatasize\n      sub\n      dup2\n      add\n      swap1\n      tag_23\n      swap2\n      swap1\n      tag_8\n      jump\t// in\n    tag_23:\n      tag_24\n      jump\t// in\n    tag_22:\n      stop\n        /* \"contracts/Trigger.sol\":1194:1590  function triggerPayment(uint _itemIndex) public payable{\r... */\n    tag_9:\n        /* \"contracts/Trigger.sol\":1300:1309  msg.value */\n      callvalue\n        /* \"contracts/Trigger.sol\":1268:1273  items */\n      0x00\n        /* \"contracts/Trigger.sol\":1268:1285  items[_itemIndex] */\n      dup1\n        /* \"contracts/Trigger.sol\":1274:1284  _itemIndex */\n      dup4\n        /* \"contracts/Trigger.sol\":1268:1285  items[_itemIndex] */\n      dup2\n      mstore\n      0x20\n      add\n      swap1\n      dup2\n      mstore\n      0x20\n      add\n      0x00\n      keccak256\n        /* \"contracts/Trigger.sol\":1268:1296  items[_itemIndex]._itemPrice */\n      0x02\n      add\n      sload\n        /* \"contracts/Trigger.sol\":1268:1309  items[_itemIndex]._itemPrice == msg.value */\n      eq\n        /* \"contracts/Trigger.sol\":1260:1340  require(items[_itemIndex]._itemPrice == msg.value,\"Only full payments accepted\") */\n      tag_26\n      jumpi\n      mload(0x40)\n      0x08c379a000000000000000000000000000000000000000000000000000000000\n      dup2\n      mstore\n      0x04\n      add\n      tag_27\n      swap1\n      tag_28\n      jump\t// in\n    tag_27:\n      mload(0x40)\n      dup1\n      swap2\n      sub\n      swap1\n      revert\n    tag_26:\n        /* \"contracts/Trigger.sol\":1389:1413  SupplyChainState.Created */\n      0x00\n        /* \"contracts/Trigger.sol\":1361:1413  items[_itemIndex]._state == SupplyChainState.Created */\n      0x02\n      dup2\n      gt\n      iszero\n      tag_29\n      jumpi\n      tag_30\n      tag_31\n      jump\t// in\n    tag_30:\n    tag_29:\n        /* \"contracts/Trigger.sol\":1361:1366  items */\n      0x00\n        /* \"contracts/Trigger.sol\":1361:1378  items[_itemIndex] */\n      dup1\n        /* \"contracts/Trigger.sol\":1367:1377  _itemIndex */\n      dup4\n        /* \"contracts/Trigger.sol\":1361:1378  items[_itemIndex] */\n      dup2\n      mstore\n      0x20\n      add\n      swap1\n      dup2\n      mstore\n      0x20\n      add\n      0x00\n      keccak256\n        /* \"contracts/Trigger.sol\":1361:1385  items[_itemIndex]._state */\n      0x03\n      add\n      0x00\n      swap1\n      sload\n      swap1\n      0x0100\n      exp\n      swap1\n      div\n      0xff\n      and\n        /* \"contracts/Trigger.sol\":1361:1413  items[_itemIndex]._state == SupplyChainState.Created */\n      0x02\n      dup2\n      gt\n      iszero\n      tag_32\n      jumpi\n      tag_33\n      tag_31\n      jump\t// in\n    tag_33:\n    tag_32:\n      eq\n        /* \"contracts/Trigger.sol\":1353:1441  require(items[_itemIndex]._state == SupplyChainState.Created,\"Item is further in chain\") */\n      tag_34\n      jumpi\n      mload(0x40)\n      0x08c379a000000000000000000000000000000000000000000000000000000000\n      dup2\n      mstore\n      0x04\n      add\n      tag_35\n      swap1\n      tag_36\n      jump\t// in\n    tag_35:\n      mload(0x40)\n      dup1\n      swap2\n      sub\n      swap1\n      revert\n    tag_34:\n        /* \"contracts/Trigger.sol\":1485:1506  SupplyChainState.Paid */\n      0x01\n        /* \"contracts/Trigger.sol\":1458:1463  items */\n      0x00\n        /* \"contracts/Trigger.sol\":1458:1475  items[_itemIndex] */\n      dup1\n        /* \"contracts/Trigger.sol\":1464:1474  _itemIndex */\n      dup4\n        /* \"contracts/Trigger.sol\":1458:1475  items[_itemIndex] */\n      dup2\n      mstore\n      0x20\n      add\n      swap1\n      dup2\n      mstore\n      0x20\n      add\n      0x00\n      keccak256\n        /* \"contracts/Trigger.sol\":1458:1482  items[_itemIndex]._state */\n      0x03\n      add\n      0x00\n        /* \"contracts/Trigger.sol\":1458:1506  items[_itemIndex]._state = SupplyChainState.Paid */\n      0x0100\n      exp\n      dup2\n      sload\n      dup2\n      0xff\n      mul\n      not\n      and\n      swap1\n      dup4\n      0x02\n      dup2\n      gt\n      iszero\n      tag_37\n      jumpi\n      tag_38\n      tag_31\n      jump\t// in\n    tag_38:\n    tag_37:\n      mul\n      or\n      swap1\n      sstore\n      pop\n        /* \"contracts/Trigger.sol\":1522:1581  SupplyChainStep(_itemIndex, uint(items[_itemIndex]._state)) */\n      0x8c198761ba3d324d155cbaf96f0ac38a531c085089e49106d95352535a1110c2\n        /* \"contracts/Trigger.sol\":1538:1548  _itemIndex */\n      dup2\n        /* \"contracts/Trigger.sol\":1555:1560  items */\n      0x00\n        /* \"contracts/Trigger.sol\":1555:1572  items[_itemIndex] */\n      dup1\n        /* \"contracts/Trigger.sol\":1561:1571  _itemIndex */\n      dup5\n        /* \"contracts/Trigger.sol\":1555:1572  items[_itemIndex] */\n      dup2\n      mstore\n      0x20\n      add\n      swap1\n      dup2\n      mstore\n      0x20\n      add\n      0x00\n      keccak256\n        /* \"contracts/Trigger.sol\":1555:1579  items[_itemIndex]._state */\n      0x03\n      add\n      0x00\n      swap1\n      sload\n      swap1\n      0x0100\n      exp\n      swap1\n      div\n      0xff\n      and\n        /* \"contracts/Trigger.sol\":1550:1580  uint(items[_itemIndex]._state) */\n      0x02\n      dup2\n      gt\n      iszero\n      tag_39\n      jumpi\n      tag_40\n      tag_31\n      jump\t// in\n    tag_40:\n    tag_39:\n        /* \"contracts/Trigger.sol\":1522:1581  SupplyChainStep(_itemIndex, uint(items[_itemIndex]._state)) */\n      mload(0x40)\n      tag_41\n      swap3\n      swap2\n      swap1\n      tag_42\n      jump\t// in\n    tag_41:\n      mload(0x40)\n      dup1\n      swap2\n      sub\n      swap1\n      log1\n        /* \"contracts/Trigger.sol\":1194:1590  function triggerPayment(uint _itemIndex) public payable{\r... */\n      pop\n      jump\t// out\n        /* \"contracts/Trigger.sol\":741:1186  function createItem(string memory _identifier, uint _itemPrice) public{\r... */\n    tag_14:\n        /* \"contracts/Trigger.sol\":821:830  Item item */\n      0x00\n        /* \"contracts/Trigger.sol\":842:846  this */\n      address\n        /* \"contracts/Trigger.sol\":847:857  _itemPrice */\n      dup3\n        /* \"contracts/Trigger.sol\":858:867  itemIndex */\n      sload(0x01)\n        /* \"contracts/Trigger.sol\":833:868  new Item(this,_itemPrice,itemIndex) */\n      mload(0x40)\n      tag_44\n      swap1\n      tag_45\n      jump\t// in\n    tag_44:\n      tag_46\n      swap4\n      swap3\n      swap2\n      swap1\n      tag_47\n      jump\t// in\n    tag_46:\n      mload(0x40)\n      dup1\n      swap2\n      sub\n      swap1\n      0x00\n      create\n      dup1\n      iszero\n      dup1\n      iszero\n      tag_48\n      jumpi\n      returndatasize\n      0x00\n      dup1\n      returndatacopy\n      revert(0x00, returndatasize)\n    tag_48:\n      pop\n        /* \"contracts/Trigger.sol\":821:868  Item item = new Item(this,_itemPrice,itemIndex) */\n      swap1\n      pop\n        /* \"contracts/Trigger.sol\":904:908  item */\n      dup1\n        /* \"contracts/Trigger.sol\":879:884  items */\n      0x00\n        /* \"contracts/Trigger.sol\":879:895  items[itemIndex] */\n      dup1\n        /* \"contracts/Trigger.sol\":885:894  itemIndex */\n      sload(0x01)\n        /* \"contracts/Trigger.sol\":879:895  items[itemIndex] */\n      dup2\n      mstore\n      0x20\n      add\n      swap1\n      dup2\n      mstore\n      0x20\n      add\n      0x00\n      keccak256\n        /* \"contracts/Trigger.sol\":879:901  items[itemIndex]._item */\n      0x00\n      add\n      0x00\n        /* \"contracts/Trigger.sol\":879:908  items[itemIndex]._item = item */\n      0x0100\n      exp\n      dup2\n      sload\n      dup2\n      0xffffffffffffffffffffffffffffffffffffffff\n      mul\n      not\n      and\n      swap1\n      dup4\n      0xffffffffffffffffffffffffffffffffffffffff\n      and\n      mul\n      or\n      swap1\n      sstore\n      pop\n        /* \"contracts/Trigger.sol\":950:961  _identifier */\n      dup3\n        /* \"contracts/Trigger.sol\":919:924  items */\n      0x00\n        /* \"contracts/Trigger.sol\":919:935  items[itemIndex] */\n      dup1\n        /* \"contracts/Trigger.sol\":925:934  itemIndex */\n      sload(0x01)\n        /* \"contracts/Trigger.sol\":919:935  items[itemIndex] */\n      dup2\n      mstore\n      0x20\n      add\n      swap1\n      dup2\n      mstore\n      0x20\n      add\n      0x00\n      keccak256\n        /* \"contracts/Trigger.sol\":919:947  items[itemIndex]._identifier */\n      0x01\n      add\n        /* \"contracts/Trigger.sol\":919:961  items[itemIndex]._identifier = _identifier */\n      swap1\n      dup1\n      mload\n      swap1\n      0x20\n      add\n      swap1\n      tag_49\n      swap3\n      swap2\n      swap1\n      tag_50\n      jump\t// in\n    tag_49:\n      pop\n        /* \"contracts/Trigger.sol\":1002:1012  _itemPrice */\n      dup2\n        /* \"contracts/Trigger.sol\":972:977  items */\n      0x00\n        /* \"contracts/Trigger.sol\":972:988  items[itemIndex] */\n      dup1\n        /* \"contracts/Trigger.sol\":978:987  itemIndex */\n      sload(0x01)\n        /* \"contracts/Trigger.sol\":972:988  items[itemIndex] */\n      dup2\n      mstore\n      0x20\n      add\n      swap1\n      dup2\n      mstore\n      0x20\n      add\n      0x00\n      keccak256\n        /* \"contracts/Trigger.sol\":972:999  items[itemIndex]._itemPrice */\n      0x02\n      add\n        /* \"contracts/Trigger.sol\":972:1012  items[itemIndex]._itemPrice = _itemPrice */\n      dup2\n      swap1\n      sstore\n      pop\n        /* \"contracts/Trigger.sol\":1049:1073  SupplyChainState.Created */\n      0x00\n        /* \"contracts/Trigger.sol\":1023:1028  items */\n      dup1\n        /* \"contracts/Trigger.sol\":1023:1039  items[itemIndex] */\n      0x00\n        /* \"contracts/Trigger.sol\":1029:1038  itemIndex */\n      sload(0x01)\n        /* \"contracts/Trigger.sol\":1023:1039  items[itemIndex] */\n      dup2\n      mstore\n      0x20\n      add\n      swap1\n      dup2\n      mstore\n      0x20\n      add\n      0x00\n      keccak256\n        /* \"contracts/Trigger.sol\":1023:1046  items[itemIndex]._state */\n      0x03\n      add\n      0x00\n        /* \"contracts/Trigger.sol\":1023:1073  items[itemIndex]._state = SupplyChainState.Created */\n      0x0100\n      exp\n      dup2\n      sload\n      dup2\n      0xff\n      mul\n      not\n      and\n      swap1\n      dup4\n      0x02\n      dup2\n      gt\n      iszero\n      tag_51\n      jumpi\n      tag_52\n      tag_31\n      jump\t// in\n    tag_52:\n    tag_51:\n      mul\n      or\n      swap1\n      sstore\n      pop\n        /* \"contracts/Trigger.sol\":1099:1156  SupplyChainStep(itemIndex, uint(items[itemIndex]._state)) */\n      0x8c198761ba3d324d155cbaf96f0ac38a531c085089e49106d95352535a1110c2\n        /* \"contracts/Trigger.sol\":1115:1124  itemIndex */\n      sload(0x01)\n        /* \"contracts/Trigger.sol\":1131:1136  items */\n      0x00\n        /* \"contracts/Trigger.sol\":1131:1147  items[itemIndex] */\n      dup1\n        /* \"contracts/Trigger.sol\":1137:1146  itemIndex */\n      sload(0x01)\n        /* \"contracts/Trigger.sol\":1131:1147  items[itemIndex] */\n      dup2\n      mstore\n      0x20\n      add\n      swap1\n      dup2\n      mstore\n      0x20\n      add\n      0x00\n      keccak256\n        /* \"contracts/Trigger.sol\":1131:1154  items[itemIndex]._state */\n      0x03\n      add\n      0x00\n      swap1\n      sload\n      swap1\n      0x0100\n      exp\n      swap1\n      div\n      0xff\n      and\n        /* \"contracts/Trigger.sol\":1126:1155  uint(items[itemIndex]._state) */\n      0x02\n      dup2\n      gt\n      iszero\n      tag_53\n      jumpi\n      tag_54\n      tag_31\n      jump\t// in\n    tag_54:\n    tag_53:\n        /* \"contracts/Trigger.sol\":1099:1156  SupplyChainStep(itemIndex, uint(items[itemIndex]._state)) */\n      mload(0x40)\n      tag_55\n      swap3\n      swap2\n      swap1\n      tag_42\n      jump\t// in\n    tag_55:\n      mload(0x40)\n      dup1\n      swap2\n      sub\n      swap1\n      log1\n        /* \"contracts/Trigger.sol\":1167:1176  itemIndex */\n      0x01\n      0x00\n        /* \"contracts/Trigger.sol\":1167:1178  itemIndex++ */\n      dup2\n      sload\n      dup1\n      swap3\n      swap2\n      swap1\n      tag_56\n      swap1\n      tag_57\n      jump\t// in\n    tag_56:\n      swap2\n      swap1\n      pop\n      sstore\n      pop\n        /* \"contracts/Trigger.sol\":811:1186  {\r... */\n      pop\n        /* \"contracts/Trigger.sol\":741:1186  function createItem(string memory _identifier, uint _itemPrice) public{\r... */\n      pop\n      pop\n      jump\t// out\n        /* \"contracts/Trigger.sol\":618:654  mapping(uint => S_Item) public items */\n    tag_18:\n      mstore(0x20, 0x00)\n      dup1\n      0x00\n      mstore\n      keccak256(0x00, 0x40)\n      0x00\n      swap2\n      pop\n      swap1\n      pop\n      dup1\n      0x00\n      add\n      0x00\n      swap1\n      sload\n      swap1\n      0x0100\n      exp\n      swap1\n      div\n      0xffffffffffffffffffffffffffffffffffffffff\n      and\n      swap1\n      dup1\n      0x01\n      add\n      dup1\n      sload\n      tag_58\n      swap1\n      tag_59\n      jump\t// in\n    tag_58:\n      dup1\n      0x1f\n      add\n      0x20\n      dup1\n      swap2\n      div\n      mul\n      0x20\n      add\n      mload(0x40)\n      swap1\n      dup2\n      add\n      0x40\n      mstore\n      dup1\n      swap3\n      swap2\n      swap1\n      dup2\n      dup2\n      mstore\n      0x20\n      add\n      dup3\n      dup1\n      sload\n      tag_60\n      swap1\n      tag_59\n      jump\t// in\n    tag_60:\n      dup1\n      iszero\n      tag_61\n      jumpi\n      dup1\n      0x1f\n      lt\n      tag_62\n      jumpi\n      0x0100\n      dup1\n      dup4\n      sload\n      div\n      mul\n      dup4\n      mstore\n      swap2\n      0x20\n      add\n      swap2\n      jump(tag_61)\n    tag_62:\n      dup3\n      add\n      swap2\n      swap1\n      0x00\n      mstore\n      keccak256(0x00, 0x20)\n      swap1\n    tag_63:\n      dup2\n      sload\n      dup2\n      mstore\n      swap1\n      0x01\n      add\n      swap1\n      0x20\n      add\n      dup1\n      dup4\n      gt\n      tag_63\n      jumpi\n      dup3\n      swap1\n      sub\n      0x1f\n      and\n      dup3\n      add\n      swap2\n    tag_61:\n      pop\n      pop\n      pop\n      pop\n      pop\n      swap1\n      dup1\n      0x02\n      add\n      sload\n      swap1\n      dup1\n      0x03\n      add\n      0x00\n      swap1\n      sload\n      swap1\n      0x0100\n      exp\n      swap1\n      div\n      0xff\n      and\n      swap1\n      pop\n      dup5\n      jump\t// out\n        /* \"contracts/Trigger.sol\":1598:1903  function triggerDelivery(uint _itemIndex) public{\r... */\n    tag_24:\n        /* \"contracts/Trigger.sol\":1693:1714  SupplyChainState.Paid */\n      0x01\n        /* \"contracts/Trigger.sol\":1665:1714  items[_itemIndex]._state == SupplyChainState.Paid */\n      0x02\n      dup2\n      gt\n      iszero\n      tag_65\n      jumpi\n      tag_66\n      tag_31\n      jump\t// in\n    tag_66:\n    tag_65:\n        /* \"contracts/Trigger.sol\":1665:1670  items */\n      0x00\n        /* \"contracts/Trigger.sol\":1665:1682  items[_itemIndex] */\n      dup1\n        /* \"contracts/Trigger.sol\":1671:1681  _itemIndex */\n      dup4\n        /* \"contracts/Trigger.sol\":1665:1682  items[_itemIndex] */\n      dup2\n      mstore\n      0x20\n      add\n      swap1\n      dup2\n      mstore\n      0x20\n      add\n      0x00\n      keccak256\n        /* \"contracts/Trigger.sol\":1665:1689  items[_itemIndex]._state */\n      0x03\n      add\n      0x00\n      swap1\n      sload\n      swap1\n      0x0100\n      exp\n      swap1\n      div\n      0xff\n      and\n        /* \"contracts/Trigger.sol\":1665:1714  items[_itemIndex]._state == SupplyChainState.Paid */\n      0x02\n      dup2\n      gt\n      iszero\n      tag_67\n      jumpi\n      tag_68\n      tag_31\n      jump\t// in\n    tag_68:\n    tag_67:\n      eq\n        /* \"contracts/Trigger.sol\":1657:1742  require(items[_itemIndex]._state == SupplyChainState.Paid,\"Item is further in chain\") */\n      tag_69\n      jumpi\n      mload(0x40)\n      0x08c379a000000000000000000000000000000000000000000000000000000000\n      dup2\n      mstore\n      0x04\n      add\n      tag_70\n      swap1\n      tag_36\n      jump\t// in\n    tag_70:\n      mload(0x40)\n      dup1\n      swap2\n      sub\n      swap1\n      revert\n    tag_69:\n        /* \"contracts/Trigger.sol\":1782:1808  SupplyChainState.Delivered */\n      0x02\n        /* \"contracts/Trigger.sol\":1755:1760  items */\n      0x00\n        /* \"contracts/Trigger.sol\":1755:1772  items[_itemIndex] */\n      dup1\n        /* \"contracts/Trigger.sol\":1761:1771  _itemIndex */\n      dup4\n        /* \"contracts/Trigger.sol\":1755:1772  items[_itemIndex] */\n      dup2\n      mstore\n      0x20\n      add\n      swap1\n      dup2\n      mstore\n      0x20\n      add\n      0x00\n      keccak256\n        /* \"contracts/Trigger.sol\":1755:1779  items[_itemIndex]._state */\n      0x03\n      add\n      0x00\n        /* \"contracts/Trigger.sol\":1755:1808  items[_itemIndex]._state = SupplyChainState.Delivered */\n      0x0100\n      exp\n      dup2\n      sload\n      dup2\n      0xff\n      mul\n      not\n      and\n      swap1\n      dup4\n      0x02\n      dup2\n      gt\n      iszero\n      tag_71\n      jumpi\n      tag_72\n      tag_31\n      jump\t// in\n    tag_72:\n    tag_71:\n      mul\n      or\n      swap1\n      sstore\n      pop\n        /* \"contracts/Trigger.sol\":1834:1893  SupplyChainStep(_itemIndex, uint(items[_itemIndex]._state)) */\n      0x8c198761ba3d324d155cbaf96f0ac38a531c085089e49106d95352535a1110c2\n        /* \"contracts/Trigger.sol\":1850:1860  _itemIndex */\n      dup2\n        /* \"contracts/Trigger.sol\":1867:1872  items */\n      0x00\n        /* \"contracts/Trigger.sol\":1867:1884  items[_itemIndex] */\n      dup1\n        /* \"contracts/Trigger.sol\":1873:1883  _itemIndex */\n      dup5\n        /* \"contracts/Trigger.sol\":1867:1884  items[_itemIndex] */\n      dup2\n      mstore\n      0x20\n      add\n      swap1\n      dup2\n      mstore\n      0x20\n      add\n      0x00\n      keccak256\n        /* \"contracts/Trigger.sol\":1867:1891  items[_itemIndex]._state */\n      0x03\n      add\n      0x00\n      swap1\n      sload\n      swap1\n      0x0100\n      exp\n      swap1\n      div\n      0xff\n      and\n        /* \"contracts/Trigger.sol\":1862:1892  uint(items[_itemIndex]._state) */\n      0x02\n      dup2\n      gt\n      iszero\n      tag_73\n      jumpi\n      tag_74\n      tag_31\n      jump\t// in\n    tag_74:\n    tag_73:\n        /* \"contracts/Trigger.sol\":1834:1893  SupplyChainStep(_itemIndex, uint(items[_itemIndex]._state)) */\n      mload(0x40)\n      tag_75\n      swap3\n      swap2\n      swap1\n      tag_42\n      jump\t// in\n    tag_75:\n      mload(0x40)\n      dup1\n      swap2\n      sub\n      swap1\n      log1\n        /* \"contracts/Trigger.sol\":1598:1903  function triggerDelivery(uint _itemIndex) public{\r... */\n      pop\n      jump\t// out\n    tag_45:\n      dataSize(sub_0)\n      dup1\n      dataOffset(sub_0)\n      dup4\n      codecopy\n      add\n      swap1\n      jump\t// out\n    tag_50:\n      dup3\n      dup1\n      sload\n      tag_76\n      swap1\n      tag_59\n      jump\t// in\n    tag_76:\n      swap1\n      0x00\n      mstore\n      keccak256(0x00, 0x20)\n      swap1\n      0x1f\n      add\n      0x20\n      swap1\n      div\n      dup2\n      add\n      swap3\n      dup3\n      tag_78\n      jumpi\n      0x00\n      dup6\n      sstore\n      jump(tag_77)\n    tag_78:\n      dup3\n      0x1f\n      lt\n      tag_79\n      jumpi\n      dup1\n      mload\n      not(0xff)\n      and\n      dup4\n      dup1\n      add\n      or\n      dup6\n      sstore\n      jump(tag_77)\n    tag_79:\n      dup3\n      dup1\n      add\n      0x01\n      add\n      dup6\n      sstore\n      dup3\n      iszero\n      tag_77\n      jumpi\n      swap2\n      dup3\n      add\n    tag_80:\n      dup3\n      dup2\n      gt\n      iszero\n      tag_81\n      jumpi\n      dup3\n      mload\n      dup3\n      sstore\n      swap2\n      0x20\n      add\n      swap2\n      swap1\n      0x01\n      add\n      swap1\n      jump(tag_80)\n    tag_81:\n    tag_77:\n      pop\n      swap1\n      pop\n      tag_82\n      swap2\n      swap1\n      tag_83\n      jump\t// in\n    tag_82:\n      pop\n      swap1\n      jump\t// out\n    tag_83:\n    tag_84:\n      dup1\n      dup3\n      gt\n      iszero\n      tag_85\n      jumpi\n      0x00\n      dup2\n      0x00\n      swap1\n      sstore\n      pop\n      0x01\n      add\n      jump(tag_84)\n    tag_85:\n      pop\n      swap1\n      jump\t// out\n        /* \"#utility.yul\":7:419   */\n    tag_87:\n        /* \"#utility.yul\":85:90   */\n      0x00\n        /* \"#utility.yul\":110:176   */\n      tag_89\n        /* \"#utility.yul\":126:175   */\n      tag_90\n        /* \"#utility.yul\":168:174   */\n      dup5\n        /* \"#utility.yul\":126:175   */\n      tag_91\n      jump\t// in\n    tag_90:\n        /* \"#utility.yul\":110:176   */\n      tag_92\n      jump\t// in\n    tag_89:\n        /* \"#utility.yul\":101:176   */\n      swap1\n      pop\n        /* \"#utility.yul\":199:205   */\n      dup3\n        /* \"#utility.yul\":192:197   */\n      dup2\n        /* \"#utility.yul\":185:206   */\n      mstore\n        /* \"#utility.yul\":237:241   */\n      0x20\n        /* \"#utility.yul\":230:235   */\n      dup2\n        /* \"#utility.yul\":226:242   */\n      add\n        /* \"#utility.yul\":275:278   */\n      dup5\n        /* \"#utility.yul\":266:272   */\n      dup5\n        /* \"#utility.yul\":261:264   */\n      dup5\n        /* \"#utility.yul\":257:273   */\n      add\n        /* \"#utility.yul\":254:279   */\n      gt\n        /* \"#utility.yul\":251:363   */\n      iszero\n      tag_93\n      jumpi\n        /* \"#utility.yul\":282:361   */\n      tag_94\n      tag_95\n      jump\t// in\n    tag_94:\n        /* \"#utility.yul\":251:363   */\n    tag_93:\n        /* \"#utility.yul\":372:413   */\n      tag_96\n        /* \"#utility.yul\":406:412   */\n      dup5\n        /* \"#utility.yul\":401:404   */\n      dup3\n        /* \"#utility.yul\":396:399   */\n      dup6\n        /* \"#utility.yul\":372:413   */\n      tag_97\n      jump\t// in\n    tag_96:\n        /* \"#utility.yul\":91:419   */\n      pop\n        /* \"#utility.yul\":7:419   */\n      swap4\n      swap3\n      pop\n      pop\n      pop\n      jump\t// out\n        /* \"#utility.yul\":439:779   */\n    tag_98:\n        /* \"#utility.yul\":495:500   */\n      0x00\n        /* \"#utility.yul\":544:547   */\n      dup3\n        /* \"#utility.yul\":537:541   */\n      0x1f\n        /* \"#utility.yul\":529:535   */\n      dup4\n        /* \"#utility.yul\":525:542   */\n      add\n        /* \"#utility.yul\":521:548   */\n      slt\n        /* \"#utility.yul\":511:633   */\n      tag_100\n      jumpi\n        /* \"#utility.yul\":552:631   */\n      tag_101\n      tag_102\n      jump\t// in\n    tag_101:\n        /* \"#utility.yul\":511:633   */\n    tag_100:\n        /* \"#utility.yul\":669:675   */\n      dup2\n        /* \"#utility.yul\":656:676   */\n      calldataload\n        /* \"#utility.yul\":694:773   */\n      tag_103\n        /* \"#utility.yul\":769:772   */\n      dup5\n        /* \"#utility.yul\":761:767   */\n      dup3\n        /* \"#utility.yul\":754:758   */\n      0x20\n        /* \"#utility.yul\":746:752   */\n      dup7\n        /* \"#utility.yul\":742:759   */\n      add\n        /* \"#utility.yul\":694:773   */\n      tag_87\n      jump\t// in\n    tag_103:\n        /* \"#utility.yul\":685:773   */\n      swap2\n      pop\n        /* \"#utility.yul\":501:779   */\n      pop\n        /* \"#utility.yul\":439:779   */\n      swap3\n      swap2\n      pop\n      pop\n      jump\t// out\n        /* \"#utility.yul\":785:924   */\n    tag_104:\n        /* \"#utility.yul\":831:836   */\n      0x00\n        /* \"#utility.yul\":869:875   */\n      dup2\n        /* \"#utility.yul\":856:876   */\n      calldataload\n        /* \"#utility.yul\":847:876   */\n      swap1\n      pop\n        /* \"#utility.yul\":885:918   */\n      tag_106\n        /* \"#utility.yul\":912:917   */\n      dup2\n        /* \"#utility.yul\":885:918   */\n      tag_107\n      jump\t// in\n    tag_106:\n        /* \"#utility.yul\":785:924   */\n      swap3\n      swap2\n      pop\n      pop\n      jump\t// out\n        /* \"#utility.yul\":930:1584   */\n    tag_13:\n        /* \"#utility.yul\":1008:1014   */\n      0x00\n        /* \"#utility.yul\":1016:1022   */\n      dup1\n        /* \"#utility.yul\":1065:1067   */\n      0x40\n        /* \"#utility.yul\":1053:1062   */\n      dup4\n        /* \"#utility.yul\":1044:1051   */\n      dup6\n        /* \"#utility.yul\":1040:1063   */\n      sub\n        /* \"#utility.yul\":1036:1068   */\n      slt\n        /* \"#utility.yul\":1033:1152   */\n      iszero\n      tag_109\n      jumpi\n        /* \"#utility.yul\":1071:1150   */\n      tag_110\n      tag_111\n      jump\t// in\n    tag_110:\n        /* \"#utility.yul\":1033:1152   */\n    tag_109:\n        /* \"#utility.yul\":1219:1220   */\n      0x00\n        /* \"#utility.yul\":1208:1217   */\n      dup4\n        /* \"#utility.yul\":1204:1221   */\n      add\n        /* \"#utility.yul\":1191:1222   */\n      calldataload\n        /* \"#utility.yul\":1249:1267   */\n      0xffffffffffffffff\n        /* \"#utility.yul\":1241:1247   */\n      dup2\n        /* \"#utility.yul\":1238:1268   */\n      gt\n        /* \"#utility.yul\":1235:1352   */\n      iszero\n      tag_112\n      jumpi\n        /* \"#utility.yul\":1271:1350   */\n      tag_113\n      tag_114\n      jump\t// in\n    tag_113:\n        /* \"#utility.yul\":1235:1352   */\n    tag_112:\n        /* \"#utility.yul\":1376:1439   */\n      tag_115\n        /* \"#utility.yul\":1431:1438   */\n      dup6\n        /* \"#utility.yul\":1422:1428   */\n      dup3\n        /* \"#utility.yul\":1411:1420   */\n      dup7\n        /* \"#utility.yul\":1407:1429   */\n      add\n        /* \"#utility.yul\":1376:1439   */\n      tag_98\n      jump\t// in\n    tag_115:\n        /* \"#utility.yul\":1366:1439   */\n      swap3\n      pop\n        /* \"#utility.yul\":1162:1449   */\n      pop\n        /* \"#utility.yul\":1488:1490   */\n      0x20\n        /* \"#utility.yul\":1514:1567   */\n      tag_116\n        /* \"#utility.yul\":1559:1566   */\n      dup6\n        /* \"#utility.yul\":1550:1556   */\n      dup3\n        /* \"#utility.yul\":1539:1548   */\n      dup7\n        /* \"#utility.yul\":1535:1557   */\n      add\n        /* \"#utility.yul\":1514:1567   */\n      tag_104\n      jump\t// in\n    tag_116:\n        /* \"#utility.yul\":1504:1567   */\n      swap2\n      pop\n        /* \"#utility.yul\":1459:1577   */\n      pop\n        /* \"#utility.yul\":930:1584   */\n      swap3\n      pop\n      swap3\n      swap1\n      pop\n      jump\t// out\n        /* \"#utility.yul\":1590:1919   */\n    tag_8:\n        /* \"#utility.yul\":1649:1655   */\n      0x00\n        /* \"#utility.yul\":1698:1700   */\n      0x20\n        /* \"#utility.yul\":1686:1695   */\n      dup3\n        /* \"#utility.yul\":1677:1684   */\n      dup5\n        /* \"#utility.yul\":1673:1696   */\n      sub\n        /* \"#utility.yul\":1669:1701   */\n      slt\n        /* \"#utility.yul\":1666:1785   */\n      iszero\n      tag_118\n      jumpi\n        /* \"#utility.yul\":1704:1783   */\n      tag_119\n      tag_111\n      jump\t// in\n    tag_119:\n        /* \"#utility.yul\":1666:1785   */\n    tag_118:\n        /* \"#utility.yul\":1824:1825   */\n      0x00\n        /* \"#utility.yul\":1849:1902   */\n      tag_120\n        /* \"#utility.yul\":1894:1901   */\n      dup5\n        /* \"#utility.yul\":1885:1891   */\n      dup3\n        /* \"#utility.yul\":1874:1883   */\n      dup6\n        /* \"#utility.yul\":1870:1892   */\n      add\n        /* \"#utility.yul\":1849:1902   */\n      tag_104\n      jump\t// in\n    tag_120:\n        /* \"#utility.yul\":1839:1902   */\n      swap2\n      pop\n        /* \"#utility.yul\":1795:1912   */\n      pop\n        /* \"#utility.yul\":1590:1919   */\n      swap3\n      swap2\n      pop\n      pop\n      jump\t// out\n        /* \"#utility.yul\":1925:2094   */\n    tag_121:\n        /* \"#utility.yul\":2031:2087   */\n      tag_123\n        /* \"#utility.yul\":2081:2086   */\n      dup2\n        /* \"#utility.yul\":2031:2087   */\n      tag_124\n      jump\t// in\n    tag_123:\n        /* \"#utility.yul\":2026:2029   */\n      dup3\n        /* \"#utility.yul\":2019:2088   */\n      mstore\n        /* \"#utility.yul\":1925:2094   */\n      pop\n      pop\n      jump\t// out\n        /* \"#utility.yul\":2100:2269   */\n    tag_125:\n        /* \"#utility.yul\":2206:2262   */\n      tag_127\n        /* \"#utility.yul\":2256:2261   */\n      dup2\n        /* \"#utility.yul\":2206:2262   */\n      tag_128\n      jump\t// in\n    tag_127:\n        /* \"#utility.yul\":2201:2204   */\n      dup3\n        /* \"#utility.yul\":2194:2263   */\n      mstore\n        /* \"#utility.yul\":2100:2269   */\n      pop\n      pop\n      jump\t// out\n        /* \"#utility.yul\":2275:2440   */\n    tag_129:\n        /* \"#utility.yul\":2379:2433   */\n      tag_131\n        /* \"#utility.yul\":2427:2432   */\n      dup2\n        /* \"#utility.yul\":2379:2433   */\n      tag_132\n      jump\t// in\n    tag_131:\n        /* \"#utility.yul\":2374:2377   */\n      dup3\n        /* \"#utility.yul\":2367:2434   */\n      mstore\n        /* \"#utility.yul\":2275:2440   */\n      pop\n      pop\n      jump\t// out\n        /* \"#utility.yul\":2446:2810   */\n    tag_133:\n        /* \"#utility.yul\":2534:2537   */\n      0x00\n        /* \"#utility.yul\":2562:2601   */\n      tag_135\n        /* \"#utility.yul\":2595:2600   */\n      dup3\n        /* \"#utility.yul\":2562:2601   */\n      tag_136\n      jump\t// in\n    tag_135:\n        /* \"#utility.yul\":2617:2688   */\n      tag_137\n        /* \"#utility.yul\":2681:2687   */\n      dup2\n        /* \"#utility.yul\":2676:2679   */\n      dup6\n        /* \"#utility.yul\":2617:2688   */\n      tag_138\n      jump\t// in\n    tag_137:\n        /* \"#utility.yul\":2610:2688   */\n      swap4\n      pop\n        /* \"#utility.yul\":2697:2749   */\n      tag_139\n        /* \"#utility.yul\":2742:2748   */\n      dup2\n        /* \"#utility.yul\":2737:2740   */\n      dup6\n        /* \"#utility.yul\":2730:2734   */\n      0x20\n        /* \"#utility.yul\":2723:2728   */\n      dup7\n        /* \"#utility.yul\":2719:2735   */\n      add\n        /* \"#utility.yul\":2697:2749   */\n      tag_140\n      jump\t// in\n    tag_139:\n        /* \"#utility.yul\":2774:2803   */\n      tag_141\n        /* \"#utility.yul\":2796:2802   */\n      dup2\n        /* \"#utility.yul\":2774:2803   */\n      tag_142\n      jump\t// in\n    tag_141:\n        /* \"#utility.yul\":2769:2772   */\n      dup5\n        /* \"#utility.yul\":2765:2804   */\n      add\n        /* \"#utility.yul\":2758:2804   */\n      swap2\n      pop\n        /* \"#utility.yul\":2538:2810   */\n      pop\n        /* \"#utility.yul\":2446:2810   */\n      swap3\n      swap2\n      pop\n      pop\n      jump\t// out\n        /* \"#utility.yul\":2816:3182   */\n    tag_143:\n        /* \"#utility.yul\":2958:2961   */\n      0x00\n        /* \"#utility.yul\":2979:3046   */\n      tag_145\n        /* \"#utility.yul\":3043:3045   */\n      0x1b\n        /* \"#utility.yul\":3038:3041   */\n      dup4\n        /* \"#utility.yul\":2979:3046   */\n      tag_138\n      jump\t// in\n    tag_145:\n        /* \"#utility.yul\":2972:3046   */\n      swap2\n      pop\n        /* \"#utility.yul\":3055:3148   */\n      tag_146\n        /* \"#utility.yul\":3144:3147   */\n      dup3\n        /* \"#utility.yul\":3055:3148   */\n      tag_147\n      jump\t// in\n    tag_146:\n        /* \"#utility.yul\":3173:3175   */\n      0x20\n        /* \"#utility.yul\":3168:3171   */\n      dup3\n        /* \"#utility.yul\":3164:3176   */\n      add\n        /* \"#utility.yul\":3157:3176   */\n      swap1\n      pop\n        /* \"#utility.yul\":2816:3182   */\n      swap2\n      swap1\n      pop\n      jump\t// out\n        /* \"#utility.yul\":3188:3554   */\n    tag_148:\n        /* \"#utility.yul\":3330:3333   */\n      0x00\n        /* \"#utility.yul\":3351:3418   */\n      tag_150\n        /* \"#utility.yul\":3415:3417   */\n      0x18\n        /* \"#utility.yul\":3410:3413   */\n      dup4\n        /* \"#utility.yul\":3351:3418   */\n      tag_138\n      jump\t// in\n    tag_150:\n        /* \"#utility.yul\":3344:3418   */\n      swap2\n      pop\n        /* \"#utility.yul\":3427:3520   */\n      tag_151\n        /* \"#utility.yul\":3516:3519   */\n      dup3\n        /* \"#utility.yul\":3427:3520   */\n      tag_152\n      jump\t// in\n    tag_151:\n        /* \"#utility.yul\":3545:3547   */\n      0x20\n        /* \"#utility.yul\":3540:3543   */\n      dup3\n        /* \"#utility.yul\":3536:3548   */\n      add\n        /* \"#utility.yul\":3529:3548   */\n      swap1\n      pop\n        /* \"#utility.yul\":3188:3554   */\n      swap2\n      swap1\n      pop\n      jump\t// out\n        /* \"#utility.yul\":3560:3678   */\n    tag_153:\n        /* \"#utility.yul\":3647:3671   */\n      tag_155\n        /* \"#utility.yul\":3665:3670   */\n      dup2\n        /* \"#utility.yul\":3647:3671   */\n      tag_156\n      jump\t// in\n    tag_155:\n        /* \"#utility.yul\":3642:3645   */\n      dup3\n        /* \"#utility.yul\":3635:3672   */\n      mstore\n        /* \"#utility.yul\":3560:3678   */\n      pop\n      pop\n      jump\t// out\n        /* \"#utility.yul\":3684:4164   */\n    tag_47:\n        /* \"#utility.yul\":3852:3856   */\n      0x00\n        /* \"#utility.yul\":3890:3892   */\n      0x60\n        /* \"#utility.yul\":3879:3888   */\n      dup3\n        /* \"#utility.yul\":3875:3893   */\n      add\n        /* \"#utility.yul\":3867:3893   */\n      swap1\n      pop\n        /* \"#utility.yul\":3903:3993   */\n      tag_158\n        /* \"#utility.yul\":3990:3991   */\n      0x00\n        /* \"#utility.yul\":3979:3988   */\n      dup4\n        /* \"#utility.yul\":3975:3992   */\n      add\n        /* \"#utility.yul\":3966:3972   */\n      dup7\n        /* \"#utility.yul\":3903:3993   */\n      tag_121\n      jump\t// in\n    tag_158:\n        /* \"#utility.yul\":4003:4075   */\n      tag_159\n        /* \"#utility.yul\":4071:4073   */\n      0x20\n        /* \"#utility.yul\":4060:4069   */\n      dup4\n        /* \"#utility.yul\":4056:4074   */\n      add\n        /* \"#utility.yul\":4047:4053   */\n      dup6\n        /* \"#utility.yul\":4003:4075   */\n      tag_153\n      jump\t// in\n    tag_159:\n        /* \"#utility.yul\":4085:4157   */\n      tag_160\n        /* \"#utility.yul\":4153:4155   */\n      0x40\n        /* \"#utility.yul\":4142:4151   */\n      dup4\n        /* \"#utility.yul\":4138:4156   */\n      add\n        /* \"#utility.yul\":4129:4135   */\n      dup5\n        /* \"#utility.yul\":4085:4157   */\n      tag_153\n      jump\t// in\n    tag_160:\n        /* \"#utility.yul\":3684:4164   */\n      swap5\n      swap4\n      pop\n      pop\n      pop\n      pop\n      jump\t// out\n        /* \"#utility.yul\":4170:4886   */\n    tag_20:\n        /* \"#utility.yul\":4403:4407   */\n      0x00\n        /* \"#utility.yul\":4441:4444   */\n      0x80\n        /* \"#utility.yul\":4430:4439   */\n      dup3\n        /* \"#utility.yul\":4426:4445   */\n      add\n        /* \"#utility.yul\":4418:4445   */\n      swap1\n      pop\n        /* \"#utility.yul\":4455:4545   */\n      tag_162\n        /* \"#utility.yul\":4542:4543   */\n      0x00\n        /* \"#utility.yul\":4531:4540   */\n      dup4\n        /* \"#utility.yul\":4527:4544   */\n      add\n        /* \"#utility.yul\":4518:4524   */\n      dup8\n        /* \"#utility.yul\":4455:4545   */\n      tag_125\n      jump\t// in\n    tag_162:\n        /* \"#utility.yul\":4592:4601   */\n      dup2\n        /* \"#utility.yul\":4586:4590   */\n      dup2\n        /* \"#utility.yul\":4582:4602   */\n      sub\n        /* \"#utility.yul\":4577:4579   */\n      0x20\n        /* \"#utility.yul\":4566:4575   */\n      dup4\n        /* \"#utility.yul\":4562:4580   */\n      add\n        /* \"#utility.yul\":4555:4603   */\n      mstore\n        /* \"#utility.yul\":4620:4698   */\n      tag_163\n        /* \"#utility.yul\":4693:4697   */\n      dup2\n        /* \"#utility.yul\":4684:4690   */\n      dup7\n        /* \"#utility.yul\":4620:4698   */\n      tag_133\n      jump\t// in\n    tag_163:\n        /* \"#utility.yul\":4612:4698   */\n      swap1\n      pop\n        /* \"#utility.yul\":4708:4780   */\n      tag_164\n        /* \"#utility.yul\":4776:4778   */\n      0x40\n        /* \"#utility.yul\":4765:4774   */\n      dup4\n        /* \"#utility.yul\":4761:4779   */\n      add\n        /* \"#utility.yul\":4752:4758   */\n      dup6\n        /* \"#utility.yul\":4708:4780   */\n      tag_153\n      jump\t// in\n    tag_164:\n        /* \"#utility.yul\":4790:4879   */\n      tag_165\n        /* \"#utility.yul\":4875:4877   */\n      0x60\n        /* \"#utility.yul\":4864:4873   */\n      dup4\n        /* \"#utility.yul\":4860:4878   */\n      add\n        /* \"#utility.yul\":4851:4857   */\n      dup5\n        /* \"#utility.yul\":4790:4879   */\n      tag_129\n      jump\t// in\n    tag_165:\n        /* \"#utility.yul\":4170:4886   */\n      swap6\n      swap5\n      pop\n      pop\n      pop\n      pop\n      pop\n      jump\t// out\n        /* \"#utility.yul\":4892:5311   */\n    tag_28:\n        /* \"#utility.yul\":5058:5062   */\n      0x00\n        /* \"#utility.yul\":5096:5098   */\n      0x20\n        /* \"#utility.yul\":5085:5094   */\n      dup3\n        /* \"#utility.yul\":5081:5099   */\n      add\n        /* \"#utility.yul\":5073:5099   */\n      swap1\n      pop\n        /* \"#utility.yul\":5145:5154   */\n      dup2\n        /* \"#utility.yul\":5139:5143   */\n      dup2\n        /* \"#utility.yul\":5135:5155   */\n      sub\n        /* \"#utility.yul\":5131:5132   */\n      0x00\n        /* \"#utility.yul\":5120:5129   */\n      dup4\n        /* \"#utility.yul\":5116:5133   */\n      add\n        /* \"#utility.yul\":5109:5156   */\n      mstore\n        /* \"#utility.yul\":5173:5304   */\n      tag_167\n        /* \"#utility.yul\":5299:5303   */\n      dup2\n        /* \"#utility.yul\":5173:5304   */\n      tag_143\n      jump\t// in\n    tag_167:\n        /* \"#utility.yul\":5165:5304   */\n      swap1\n      pop\n        /* \"#utility.yul\":4892:5311   */\n      swap2\n      swap1\n      pop\n      jump\t// out\n        /* \"#utility.yul\":5317:5736   */\n    tag_36:\n        /* \"#utility.yul\":5483:5487   */\n      0x00\n        /* \"#utility.yul\":5521:5523   */\n      0x20\n        /* \"#utility.yul\":5510:5519   */\n      dup3\n        /* \"#utility.yul\":5506:5524   */\n      add\n        /* \"#utility.yul\":5498:5524   */\n      swap1\n      pop\n        /* \"#utility.yul\":5570:5579   */\n      dup2\n        /* \"#utility.yul\":5564:5568   */\n      dup2\n        /* \"#utility.yul\":5560:5580   */\n      sub\n        /* \"#utility.yul\":5556:5557   */\n      0x00\n        /* \"#utility.yul\":5545:5554   */\n      dup4\n        /* \"#utility.yul\":5541:5558   */\n      add\n        /* \"#utility.yul\":5534:5581   */\n      mstore\n        /* \"#utility.yul\":5598:5729   */\n      tag_169\n        /* \"#utility.yul\":5724:5728   */\n      dup2\n        /* \"#utility.yul\":5598:5729   */\n      tag_148\n      jump\t// in\n    tag_169:\n        /* \"#utility.yul\":5590:5729   */\n      swap1\n      pop\n        /* \"#utility.yul\":5317:5736   */\n      swap2\n      swap1\n      pop\n      jump\t// out\n        /* \"#utility.yul\":5742:6074   */\n    tag_42:\n        /* \"#utility.yul\":5863:5867   */\n      0x00\n        /* \"#utility.yul\":5901:5903   */\n      0x40\n        /* \"#utility.yul\":5890:5899   */\n      dup3\n        /* \"#utility.yul\":5886:5904   */\n      add\n        /* \"#utility.yul\":5878:5904   */\n      swap1\n      pop\n        /* \"#utility.yul\":5914:5985   */\n      tag_171\n        /* \"#utility.yul\":5982:5983   */\n      0x00\n        /* \"#utility.yul\":5971:5980   */\n      dup4\n        /* \"#utility.yul\":5967:5984   */\n      add\n        /* \"#utility.yul\":5958:5964   */\n      dup6\n        /* \"#utility.yul\":5914:5985   */\n      tag_153\n      jump\t// in\n    tag_171:\n        /* \"#utility.yul\":5995:6067   */\n      tag_172\n        /* \"#utility.yul\":6063:6065   */\n      0x20\n        /* \"#utility.yul\":6052:6061   */\n      dup4\n        /* \"#utility.yul\":6048:6066   */\n      add\n        /* \"#utility.yul\":6039:6045   */\n      dup5\n        /* \"#utility.yul\":5995:6067   */\n      tag_153\n      jump\t// in\n    tag_172:\n        /* \"#utility.yul\":5742:6074   */\n      swap4\n      swap3\n      pop\n      pop\n      pop\n      jump\t// out\n        /* \"#utility.yul\":6080:6209   */\n    tag_92:\n        /* \"#utility.yul\":6114:6120   */\n      0x00\n        /* \"#utility.yul\":6141:6161   */\n      tag_174\n      tag_175\n      jump\t// in\n    tag_174:\n        /* \"#utility.yul\":6131:6161   */\n      swap1\n      pop\n        /* \"#utility.yul\":6170:6203   */\n      tag_176\n        /* \"#utility.yul\":6198:6202   */\n      dup3\n        /* \"#utility.yul\":6190:6196   */\n      dup3\n        /* \"#utility.yul\":6170:6203   */\n      tag_177\n      jump\t// in\n    tag_176:\n        /* \"#utility.yul\":6080:6209   */\n      swap2\n      swap1\n      pop\n      jump\t// out\n        /* \"#utility.yul\":6215:6290   */\n    tag_175:\n        /* \"#utility.yul\":6248:6254   */\n      0x00\n        /* \"#utility.yul\":6281:6283   */\n      0x40\n        /* \"#utility.yul\":6275:6284   */\n      mload\n        /* \"#utility.yul\":6265:6284   */\n      swap1\n      pop\n        /* \"#utility.yul\":6215:6290   */\n      swap1\n      jump\t// out\n        /* \"#utility.yul\":6296:6604   */\n    tag_91:\n        /* \"#utility.yul\":6358:6362   */\n      0x00\n        /* \"#utility.yul\":6448:6466   */\n      0xffffffffffffffff\n        /* \"#utility.yul\":6440:6446   */\n      dup3\n        /* \"#utility.yul\":6437:6467   */\n      gt\n        /* \"#utility.yul\":6434:6490   */\n      iszero\n      tag_180\n      jumpi\n        /* \"#utility.yul\":6470:6488   */\n      tag_181\n      tag_182\n      jump\t// in\n    tag_181:\n        /* \"#utility.yul\":6434:6490   */\n    tag_180:\n        /* \"#utility.yul\":6508:6537   */\n      tag_183\n        /* \"#utility.yul\":6530:6536   */\n      dup3\n        /* \"#utility.yul\":6508:6537   */\n      tag_142\n      jump\t// in\n    tag_183:\n        /* \"#utility.yul\":6500:6537   */\n      swap1\n      pop\n        /* \"#utility.yul\":6592:6596   */\n      0x20\n        /* \"#utility.yul\":6586:6590   */\n      dup2\n        /* \"#utility.yul\":6582:6597   */\n      add\n        /* \"#utility.yul\":6574:6597   */\n      swap1\n      pop\n        /* \"#utility.yul\":6296:6604   */\n      swap2\n      swap1\n      pop\n      jump\t// out\n        /* \"#utility.yul\":6610:6709   */\n    tag_136:\n        /* \"#utility.yul\":6662:6668   */\n      0x00\n        /* \"#utility.yul\":6696:6701   */\n      dup2\n        /* \"#utility.yul\":6690:6702   */\n      mload\n        /* \"#utility.yul\":6680:6702   */\n      swap1\n      pop\n        /* \"#utility.yul\":6610:6709   */\n      swap2\n      swap1\n      pop\n      jump\t// out\n        /* \"#utility.yul\":6715:6884   */\n    tag_138:\n        /* \"#utility.yul\":6799:6810   */\n      0x00\n        /* \"#utility.yul\":6833:6839   */\n      dup3\n        /* \"#utility.yul\":6828:6831   */\n      dup3\n        /* \"#utility.yul\":6821:6840   */\n      mstore\n        /* \"#utility.yul\":6873:6877   */\n      0x20\n        /* \"#utility.yul\":6868:6871   */\n      dup3\n        /* \"#utility.yul\":6864:6878   */\n      add\n        /* \"#utility.yul\":6849:6878   */\n      swap1\n      pop\n        /* \"#utility.yul\":6715:6884   */\n      swap3\n      swap2\n      pop\n      pop\n      jump\t// out\n        /* \"#utility.yul\":6890:7039   */\n    tag_186:\n        /* \"#utility.yul\":6946:6953   */\n      0x00\n        /* \"#utility.yul\":6975:6980   */\n      dup2\n        /* \"#utility.yul\":6964:6980   */\n      swap1\n      pop\n        /* \"#utility.yul\":6981:7033   */\n      tag_188\n        /* \"#utility.yul\":7027:7032   */\n      dup3\n        /* \"#utility.yul\":6981:7033   */\n      tag_189\n      jump\t// in\n    tag_188:\n        /* \"#utility.yul\":6890:7039   */\n      swap2\n      swap1\n      pop\n      jump\t// out\n        /* \"#utility.yul\":7045:7171   */\n    tag_190:\n        /* \"#utility.yul\":7082:7089   */\n      0x00\n        /* \"#utility.yul\":7122:7164   */\n      0xffffffffffffffffffffffffffffffffffffffff\n        /* \"#utility.yul\":7115:7120   */\n      dup3\n        /* \"#utility.yul\":7111:7165   */\n      and\n        /* \"#utility.yul\":7100:7165   */\n      swap1\n      pop\n        /* \"#utility.yul\":7045:7171   */\n      swap2\n      swap1\n      pop\n      jump\t// out\n        /* \"#utility.yul\":7177:7254   */\n    tag_156:\n        /* \"#utility.yul\":7214:7221   */\n      0x00\n        /* \"#utility.yul\":7243:7248   */\n      dup2\n        /* \"#utility.yul\":7232:7248   */\n      swap1\n      pop\n        /* \"#utility.yul\":7177:7254   */\n      swap2\n      swap1\n      pop\n      jump\t// out\n        /* \"#utility.yul\":7260:7405   */\n    tag_124:\n        /* \"#utility.yul\":7329:7338   */\n      0x00\n        /* \"#utility.yul\":7362:7399   */\n      tag_194\n        /* \"#utility.yul\":7393:7398   */\n      dup3\n        /* \"#utility.yul\":7362:7399   */\n      tag_195\n      jump\t// in\n    tag_194:\n        /* \"#utility.yul\":7349:7399   */\n      swap1\n      pop\n        /* \"#utility.yul\":7260:7405   */\n      swap2\n      swap1\n      pop\n      jump\t// out\n        /* \"#utility.yul\":7411:7564   */\n    tag_128:\n        /* \"#utility.yul\":7480:7489   */\n      0x00\n        /* \"#utility.yul\":7513:7558   */\n      tag_197\n        /* \"#utility.yul\":7552:7557   */\n      dup3\n        /* \"#utility.yul\":7513:7558   */\n      tag_198\n      jump\t// in\n    tag_197:\n        /* \"#utility.yul\":7500:7558   */\n      swap1\n      pop\n        /* \"#utility.yul\":7411:7564   */\n      swap2\n      swap1\n      pop\n      jump\t// out\n        /* \"#utility.yul\":7570:7719   */\n    tag_132:\n        /* \"#utility.yul\":7637:7646   */\n      0x00\n        /* \"#utility.yul\":7670:7713   */\n      tag_200\n        /* \"#utility.yul\":7707:7712   */\n      dup3\n        /* \"#utility.yul\":7670:7713   */\n      tag_186\n      jump\t// in\n    tag_200:\n        /* \"#utility.yul\":7657:7713   */\n      swap1\n      pop\n        /* \"#utility.yul\":7570:7719   */\n      swap2\n      swap1\n      pop\n      jump\t// out\n        /* \"#utility.yul\":7725:7851   */\n    tag_195:\n        /* \"#utility.yul\":7775:7784   */\n      0x00\n        /* \"#utility.yul\":7808:7845   */\n      tag_202\n        /* \"#utility.yul\":7839:7844   */\n      dup3\n        /* \"#utility.yul\":7808:7845   */\n      tag_203\n      jump\t// in\n    tag_202:\n        /* \"#utility.yul\":7795:7845   */\n      swap1\n      pop\n        /* \"#utility.yul\":7725:7851   */\n      swap2\n      swap1\n      pop\n      jump\t// out\n        /* \"#utility.yul\":7857:7991   */\n    tag_198:\n        /* \"#utility.yul\":7915:7924   */\n      0x00\n        /* \"#utility.yul\":7948:7985   */\n      tag_205\n        /* \"#utility.yul\":7979:7984   */\n      dup3\n        /* \"#utility.yul\":7948:7985   */\n      tag_203\n      jump\t// in\n    tag_205:\n        /* \"#utility.yul\":7935:7985   */\n      swap1\n      pop\n        /* \"#utility.yul\":7857:7991   */\n      swap2\n      swap1\n      pop\n      jump\t// out\n        /* \"#utility.yul\":7997:8110   */\n    tag_203:\n        /* \"#utility.yul\":8047:8056   */\n      0x00\n        /* \"#utility.yul\":8080:8104   */\n      tag_207\n        /* \"#utility.yul\":8098:8103   */\n      dup3\n        /* \"#utility.yul\":8080:8104   */\n      tag_190\n      jump\t// in\n    tag_207:\n        /* \"#utility.yul\":8067:8104   */\n      swap1\n      pop\n        /* \"#utility.yul\":7997:8110   */\n      swap2\n      swap1\n      pop\n      jump\t// out\n        /* \"#utility.yul\":8116:8270   */\n    tag_97:\n        /* \"#utility.yul\":8200:8206   */\n      dup3\n        /* \"#utility.yul\":8195:8198   */\n      dup2\n        /* \"#utility.yul\":8190:8193   */\n      dup4\n        /* \"#utility.yul\":8177:8207   */\n      calldatacopy\n        /* \"#utility.yul\":8262:8263   */\n      0x00\n        /* \"#utility.yul\":8253:8259   */\n      dup4\n        /* \"#utility.yul\":8248:8251   */\n      dup4\n        /* \"#utility.yul\":8244:8260   */\n      add\n        /* \"#utility.yul\":8237:8264   */\n      mstore\n        /* \"#utility.yul\":8116:8270   */\n      pop\n      pop\n      pop\n      jump\t// out\n        /* \"#utility.yul\":8276:8583   */\n    tag_140:\n        /* \"#utility.yul\":8344:8345   */\n      0x00\n        /* \"#utility.yul\":8354:8467   */\n    tag_210:\n        /* \"#utility.yul\":8368:8374   */\n      dup4\n        /* \"#utility.yul\":8365:8366   */\n      dup2\n        /* \"#utility.yul\":8362:8375   */\n      lt\n        /* \"#utility.yul\":8354:8467   */\n      iszero\n      tag_212\n      jumpi\n        /* \"#utility.yul\":8453:8454   */\n      dup1\n        /* \"#utility.yul\":8448:8451   */\n      dup3\n        /* \"#utility.yul\":8444:8455   */\n      add\n        /* \"#utility.yul\":8438:8456   */\n      mload\n        /* \"#utility.yul\":8434:8435   */\n      dup2\n        /* \"#utility.yul\":8429:8432   */\n      dup5\n        /* \"#utility.yul\":8425:8436   */\n      add\n        /* \"#utility.yul\":8418:8457   */\n      mstore\n        /* \"#utility.yul\":8390:8392   */\n      0x20\n        /* \"#utility.yul\":8387:8388   */\n      dup2\n        /* \"#utility.yul\":8383:8393   */\n      add\n        /* \"#utility.yul\":8378:8393   */\n      swap1\n      pop\n        /* \"#utility.yul\":8354:8467   */\n      jump(tag_210)\n    tag_212:\n        /* \"#utility.yul\":8485:8491   */\n      dup4\n        /* \"#utility.yul\":8482:8483   */\n      dup2\n        /* \"#utility.yul\":8479:8492   */\n      gt\n        /* \"#utility.yul\":8476:8577   */\n      iszero\n      tag_213\n      jumpi\n        /* \"#utility.yul\":8565:8566   */\n      0x00\n        /* \"#utility.yul\":8556:8562   */\n      dup5\n        /* \"#utility.yul\":8551:8554   */\n      dup5\n        /* \"#utility.yul\":8547:8563   */\n      add\n        /* \"#utility.yul\":8540:8567   */\n      mstore\n        /* \"#utility.yul\":8476:8577   */\n    tag_213:\n        /* \"#utility.yul\":8325:8583   */\n      pop\n        /* \"#utility.yul\":8276:8583   */\n      pop\n      pop\n      pop\n      jump\t// out\n        /* \"#utility.yul\":8589:8909   */\n    tag_59:\n        /* \"#utility.yul\":8633:8639   */\n      0x00\n        /* \"#utility.yul\":8670:8671   */\n      0x02\n        /* \"#utility.yul\":8664:8668   */\n      dup3\n        /* \"#utility.yul\":8660:8672   */\n      div\n        /* \"#utility.yul\":8650:8672   */\n      swap1\n      pop\n        /* \"#utility.yul\":8717:8718   */\n      0x01\n        /* \"#utility.yul\":8711:8715   */\n      dup3\n        /* \"#utility.yul\":8707:8719   */\n      and\n        /* \"#utility.yul\":8738:8756   */\n      dup1\n        /* \"#utility.yul\":8728:8809   */\n      tag_215\n      jumpi\n        /* \"#utility.yul\":8794:8798   */\n      0x7f\n        /* \"#utility.yul\":8786:8792   */\n      dup3\n        /* \"#utility.yul\":8782:8799   */\n      and\n        /* \"#utility.yul\":8772:8799   */\n      swap2\n      pop\n        /* \"#utility.yul\":8728:8809   */\n    tag_215:\n        /* \"#utility.yul\":8856:8858   */\n      0x20\n        /* \"#utility.yul\":8848:8854   */\n      dup3\n        /* \"#utility.yul\":8845:8859   */\n      lt\n        /* \"#utility.yul\":8825:8843   */\n      dup2\n        /* \"#utility.yul\":8822:8860   */\n      eq\n        /* \"#utility.yul\":8819:8903   */\n      iszero\n      tag_216\n      jumpi\n        /* \"#utility.yul\":8875:8893   */\n      tag_217\n      tag_218\n      jump\t// in\n    tag_217:\n        /* \"#utility.yul\":8819:8903   */\n    tag_216:\n        /* \"#utility.yul\":8640:8909   */\n      pop\n        /* \"#utility.yul\":8589:8909   */\n      swap2\n      swap1\n      pop\n      jump\t// out\n        /* \"#utility.yul\":8915:9196   */\n    tag_177:\n        /* \"#utility.yul\":8998:9025   */\n      tag_220\n        /* \"#utility.yul\":9020:9024   */\n      dup3\n        /* \"#utility.yul\":8998:9025   */\n      tag_142\n      jump\t// in\n    tag_220:\n        /* \"#utility.yul\":8990:8996   */\n      dup2\n        /* \"#utility.yul\":8986:9026   */\n      add\n        /* \"#utility.yul\":9128:9134   */\n      dup2\n        /* \"#utility.yul\":9116:9126   */\n      dup2\n        /* \"#utility.yul\":9113:9135   */\n      lt\n        /* \"#utility.yul\":9092:9110   */\n      0xffffffffffffffff\n        /* \"#utility.yul\":9080:9090   */\n      dup3\n        /* \"#utility.yul\":9077:9111   */\n      gt\n        /* \"#utility.yul\":9074:9136   */\n      or\n        /* \"#utility.yul\":9071:9159   */\n      iszero\n      tag_221\n      jumpi\n        /* \"#utility.yul\":9139:9157   */\n      tag_222\n      tag_182\n      jump\t// in\n    tag_222:\n        /* \"#utility.yul\":9071:9159   */\n    tag_221:\n        /* \"#utility.yul\":9179:9189   */\n      dup1\n        /* \"#utility.yul\":9175:9177   */\n      0x40\n        /* \"#utility.yul\":9168:9190   */\n      mstore\n        /* \"#utility.yul\":8958:9196   */\n      pop\n        /* \"#utility.yul\":8915:9196   */\n      pop\n      pop\n      jump\t// out\n        /* \"#utility.yul\":9202:9435   */\n    tag_57:\n        /* \"#utility.yul\":9241:9244   */\n      0x00\n        /* \"#utility.yul\":9264:9288   */\n      tag_224\n        /* \"#utility.yul\":9282:9287   */\n      dup3\n        /* \"#utility.yul\":9264:9288   */\n      tag_156\n      jump\t// in\n    tag_224:\n        /* \"#utility.yul\":9255:9288   */\n      swap2\n      pop\n        /* \"#utility.yul\":9310:9376   */\n      0xffffffffffffffffffffffffffffffffffffffffffffffffffffffffffffffff\n        /* \"#utility.yul\":9303:9308   */\n      dup3\n        /* \"#utility.yul\":9300:9377   */\n      eq\n        /* \"#utility.yul\":9297:9400   */\n      iszero\n      tag_225\n      jumpi\n        /* \"#utility.yul\":9380:9398   */\n      tag_226\n      tag_227\n      jump\t// in\n    tag_226:\n        /* \"#utility.yul\":9297:9400   */\n    tag_225:\n        /* \"#utility.yul\":9427:9428   */\n      0x01\n        /* \"#utility.yul\":9420:9425   */\n      dup3\n        /* \"#utility.yul\":9416:9429   */\n      add\n        /* \"#utility.yul\":9409:9429   */\n      swap1\n      pop\n        /* \"#utility.yul\":9202:9435   */\n      swap2\n      swap1\n      pop\n      jump\t// out\n        /* \"#utility.yul\":9441:9621   */\n    tag_227:\n        /* \"#utility.yul\":9489:9566   */\n      0x4e487b7100000000000000000000000000000000000000000000000000000000\n        /* \"#utility.yul\":9486:9487   */\n      0x00\n        /* \"#utility.yul\":9479:9567   */\n      mstore\n        /* \"#utility.yul\":9586:9590   */\n      0x11\n        /* \"#utility.yul\":9583:9584   */\n      0x04\n        /* \"#utility.yul\":9576:9591   */\n      mstore\n        /* \"#utility.yul\":9610:9614   */\n      0x24\n        /* \"#utility.yul\":9607:9608   */\n      0x00\n        /* \"#utility.yul\":9600:9615   */\n      revert\n        /* \"#utility.yul\":9627:9807   */\n    tag_31:\n        /* \"#utility.yul\":9675:9752   */\n      0x4e487b7100000000000000000000000000000000000000000000000000000000\n        /* \"#utility.yul\":9672:9673   */\n      0x00\n        /* \"#utility.yul\":9665:9753   */\n      mstore\n        /* \"#utility.yul\":9772:9776   */\n      0x21\n        /* \"#utility.yul\":9769:9770   */\n      0x04\n        /* \"#utility.yul\":9762:9777   */\n      mstore\n        /* \"#utility.yul\":9796:9800   */\n      0x24\n        /* \"#utility.yul\":9793:9794   */\n      0x00\n        /* \"#utility.yul\":9786:9801   */\n      revert\n        /* \"#utility.yul\":9813:9993   */\n    tag_218:\n        /* \"#utility.yul\":9861:9938   */\n      0x4e487b7100000000000000000000000000000000000000000000000000000000\n        /* \"#utility.yul\":9858:9859   */\n      0x00\n        /* \"#utility.yul\":9851:9939   */\n      mstore\n        /* \"#utility.yul\":9958:9962   */\n      0x22\n        /* \"#utility.yul\":9955:9956   */\n      0x04\n        /* \"#utility.yul\":9948:9963   */\n      mstore\n        /* \"#utility.yul\":9982:9986   */\n      0x24\n        /* \"#utility.yul\":9979:9980   */\n      0x00\n        /* \"#utility.yul\":9972:9987   */\n      revert\n        /* \"#utility.yul\":9999:10179   */\n    tag_182:\n        /* \"#utility.yul\":10047:10124   */\n      0x4e487b7100000000000000000000000000000000000000000000000000000000\n        /* \"#utility.yul\":10044:10045   */\n      0x00\n        /* \"#utility.yul\":10037:10125   */\n      mstore\n        /* \"#utility.yul\":10144:10148   */\n      0x41\n        /* \"#utility.yul\":10141:10142   */\n      0x04\n        /* \"#utility.yul\":10134:10149   */\n      mstore\n        /* \"#utility.yul\":10168:10172   */\n      0x24\n        /* \"#utility.yul\":10165:10166   */\n      0x00\n        /* \"#utility.yul\":10158:10173   */\n      revert\n        /* \"#utility.yul\":10185:10302   */\n    tag_102:\n        /* \"#utility.yul\":10294:10295   */\n      0x00\n        /* \"#utility.yul\":10291:10292   */\n      dup1\n        /* \"#utility.yul\":10284:10296   */\n      revert\n        /* \"#utility.yul\":10308:10425   */\n    tag_95:\n        /* \"#utility.yul\":10417:10418   */\n      0x00\n        /* \"#utility.yul\":10414:10415   */\n      dup1\n        /* \"#utility.yul\":10407:10419   */\n      revert\n        /* \"#utility.yul\":10431:10548   */\n    tag_114:\n        /* \"#utility.yul\":10540:10541   */\n      0x00\n        /* \"#utility.yul\":10537:10538   */\n      dup1\n        /* \"#utility.yul\":10530:10542   */\n      revert\n        /* \"#utility.yul\":10554:10671   */\n    tag_111:\n        /* \"#utility.yul\":10663:10664   */\n      0x00\n        /* \"#utility.yul\":10660:10661   */\n      dup1\n        /* \"#utility.yul\":10653:10665   */\n      revert\n        /* \"#utility.yul\":10677:10779   */\n    tag_142:\n        /* \"#utility.yul\":10718:10724   */\n      0x00\n        /* \"#utility.yul\":10769:10771   */\n      0x1f\n        /* \"#utility.yul\":10765:10772   */\n      not\n        /* \"#utility.yul\":10760:10762   */\n      0x1f\n        /* \"#utility.yul\":10753:10758   */\n      dup4\n        /* \"#utility.yul\":10749:10763   */\n      add\n        /* \"#utility.yul\":10745:10773   */\n      and\n        /* \"#utility.yul\":10735:10773   */\n      swap1\n      pop\n        /* \"#utility.yul\":10677:10779   */\n      swap2\n      swap1\n      pop\n      jump\t// out\n        /* \"#utility.yul\":10785:10962   */\n    tag_147:\n        /* \"#utility.yul\":10925:10954   */\n      0x4f6e6c792066756c6c207061796d656e74732061636365707465640000000000\n        /* \"#utility.yul\":10921:10922   */\n      0x00\n        /* \"#utility.yul\":10913:10919   */\n      dup3\n        /* \"#utility.yul\":10909:10923   */\n      add\n        /* \"#utility.yul\":10902:10955   */\n      mstore\n        /* \"#utility.yul\":10785:10962   */\n      pop\n      jump\t// out\n        /* \"#utility.yul\":10968:11142   */\n    tag_152:\n        /* \"#utility.yul\":11108:11134   */\n      0x4974656d206973206675727468657220696e20636861696e0000000000000000\n        /* \"#utility.yul\":11104:11105   */\n      0x00\n        /* \"#utility.yul\":11096:11102   */\n      dup3\n        /* \"#utility.yul\":11092:11106   */\n      add\n        /* \"#utility.yul\":11085:11135   */\n      mstore\n        /* \"#utility.yul\":10968:11142   */\n      pop\n      jump\t// out\n        /* \"#utility.yul\":11148:11272   */\n    tag_189:\n        /* \"#utility.yul\":11240:11241   */\n      0x03\n        /* \"#utility.yul\":11233:11238   */\n      dup2\n        /* \"#utility.yul\":11230:11242   */\n      lt\n        /* \"#utility.yul\":11220:11266   */\n      tag_240\n      jumpi\n        /* \"#utility.yul\":11246:11264   */\n      tag_241\n      tag_31\n      jump\t// in\n    tag_241:\n        /* \"#utility.yul\":11220:11266   */\n    tag_240:\n        /* \"#utility.yul\":11148:11272   */\n      pop\n      jump\t// out\n        /* \"#utility.yul\":11278:11400   */\n    tag_107:\n        /* \"#utility.yul\":11351:11375   */\n      tag_243\n        /* \"#utility.yul\":11369:11374   */\n      dup2\n        /* \"#utility.yul\":11351:11375   */\n      tag_156\n      jump\t// in\n    tag_243:\n        /* \"#utility.yul\":11344:11349   */\n      dup2\n        /* \"#utility.yul\":11341:11376   */\n      eq\n        /* \"#utility.yul\":11331:11394   */\n      tag_244\n      jumpi\n        /* \"#utility.yul\":11390:11391   */\n      0x00\n        /* \"#utility.yul\":11387:11388   */\n      dup1\n        /* \"#utility.yul\":11380:11392   */\n      revert\n        /* \"#utility.yul\":11331:11394   */\n    tag_244:\n        /* \"#utility.yul\":11278:11400   */\n      pop\n      jump\t// out\n    stop\n\n    sub_0: assembly {\n            /* \"contracts/Trigger.sol\":27:383  contract Item {\r... */\n          mstore(0x40, 0x80)\n            /* \"contracts/Trigger.sol\":136:327  constructor(ItemManager _parentContract , uint _priceInWei, uint _index) public {\r... */\n          callvalue\n          dup1\n          iszero\n          tag_1\n          jumpi\n          0x00\n          dup1\n          revert\n        tag_1:\n          pop\n          mload(0x40)\n          sub(codesize, bytecodeSize)\n          dup1\n          bytecodeSize\n          dup4\n          codecopy\n          dup2\n          dup2\n          add\n          0x40\n          mstore\n          dup2\n          add\n          swap1\n          tag_2\n          swap2\n          swap1\n          tag_3\n          jump\t// in\n        tag_2:\n            /* \"contracts/Trigger.sol\":240:251  _priceInWei */\n          dup2\n            /* \"contracts/Trigger.sol\":227:237  priceInWei */\n          0x00\n            /* \"contracts/Trigger.sol\":227:251  priceInWei = _priceInWei */\n          dup2\n          swap1\n          sstore\n          pop\n            /* \"contracts/Trigger.sol\":270:276  _index */\n          dup1\n            /* \"contracts/Trigger.sol\":262:267  index */\n          0x01\n            /* \"contracts/Trigger.sol\":262:276  index = _index */\n          dup2\n          swap1\n          sstore\n          pop\n            /* \"contracts/Trigger.sol\":304:319  _parentContract */\n          dup3\n            /* \"contracts/Trigger.sol\":287:301  parentContract */\n          0x02\n          0x00\n            /* \"contracts/Trigger.sol\":287:319  parentContract = _parentContract */\n          0x0100\n          exp\n          dup2\n          sload\n          dup2\n          0xffffffffffffffffffffffffffffffffffffffff\n          mul\n          not\n          and\n          swap1\n          dup4\n          0xffffffffffffffffffffffffffffffffffffffff\n          and\n          mul\n          or\n          swap1\n          sstore\n          pop\n            /* \"contracts/Trigger.sol\":136:327  constructor(ItemManager _parentContract , uint _priceInWei, uint _index) public {\r... */\n          pop\n          pop\n          pop\n            /* \"contracts/Trigger.sol\":27:383  contract Item {\r... */\n          jump(tag_6)\n            /* \"#utility.yul\":7:188   */\n        tag_8:\n            /* \"#utility.yul\":83:88   */\n          0x00\n            /* \"#utility.yul\":114:120   */\n          dup2\n            /* \"#utility.yul\":108:121   */\n          mload\n            /* \"#utility.yul\":99:121   */\n          swap1\n          pop\n            /* \"#utility.yul\":130:182   */\n          tag_10\n            /* \"#utility.yul\":176:181   */\n          dup2\n            /* \"#utility.yul\":130:182   */\n          tag_11\n          jump\t// in\n        tag_10:\n            /* \"#utility.yul\":7:188   */\n          swap3\n          swap2\n          pop\n          pop\n          jump\t// out\n            /* \"#utility.yul\":194:337   */\n        tag_12:\n            /* \"#utility.yul\":251:256   */\n          0x00\n            /* \"#utility.yul\":282:288   */\n          dup2\n            /* \"#utility.yul\":276:289   */\n          mload\n            /* \"#utility.yul\":267:289   */\n          swap1\n          pop\n            /* \"#utility.yul\":298:331   */\n          tag_14\n            /* \"#utility.yul\":325:330   */\n          dup2\n            /* \"#utility.yul\":298:331   */\n          tag_15\n          jump\t// in\n        tag_14:\n            /* \"#utility.yul\":194:337   */\n          swap3\n          swap2\n          pop\n          pop\n          jump\t// out\n            /* \"#utility.yul\":343:1044   */\n        tag_3:\n            /* \"#utility.yul\":450:456   */\n          0x00\n            /* \"#utility.yul\":458:464   */\n          dup1\n            /* \"#utility.yul\":466:472   */\n          0x00\n            /* \"#utility.yul\":515:517   */\n          0x60\n            /* \"#utility.yul\":503:512   */\n          dup5\n            /* \"#utility.yul\":494:501   */\n          dup7\n            /* \"#utility.yul\":490:513   */\n          sub\n            /* \"#utility.yul\":486:518   */\n          slt\n            /* \"#utility.yul\":483:602   */\n          iszero\n          tag_17\n          jumpi\n            /* \"#utility.yul\":521:600   */\n          tag_18\n          tag_19\n          jump\t// in\n        tag_18:\n            /* \"#utility.yul\":483:602   */\n        tag_17:\n            /* \"#utility.yul\":641:642   */\n          0x00\n            /* \"#utility.yul\":666:749   */\n          tag_20\n            /* \"#utility.yul\":741:748   */\n          dup7\n            /* \"#utility.yul\":732:738   */\n          dup3\n            /* \"#utility.yul\":721:730   */\n          dup8\n            /* \"#utility.yul\":717:739   */\n          add\n            /* \"#utility.yul\":666:749   */\n          tag_8\n          jump\t// in\n        tag_20:\n            /* \"#utility.yul\":656:749   */\n          swap4\n          pop\n            /* \"#utility.yul\":612:759   */\n          pop\n            /* \"#utility.yul\":798:800   */\n          0x20\n            /* \"#utility.yul\":824:888   */\n          tag_21\n            /* \"#utility.yul\":880:887   */\n          dup7\n            /* \"#utility.yul\":871:877   */\n          dup3\n            /* \"#utility.yul\":860:869   */\n          dup8\n            /* \"#utility.yul\":856:878   */\n          add\n            /* \"#utility.yul\":824:888   */\n          tag_12\n          jump\t// in\n        tag_21:\n            /* \"#utility.yul\":814:888   */\n          swap3\n          pop\n            /* \"#utility.yul\":769:898   */\n          pop\n            /* \"#utility.yul\":937:939   */\n          0x40\n            /* \"#utility.yul\":963:1027   */\n          tag_22\n            /* \"#utility.yul\":1019:1026   */\n          dup7\n            /* \"#utility.yul\":1010:1016   */\n          dup3\n            /* \"#utility.yul\":999:1008   */\n          dup8\n            /* \"#utility.yul\":995:1017   */\n          add\n            /* \"#utility.yul\":963:1027   */\n          tag_12\n          jump\t// in\n        tag_22:\n            /* \"#utility.yul\":953:1027   */\n          swap2\n          pop\n            /* \"#utility.yul\":908:1037   */\n          pop\n            /* \"#utility.yul\":343:1044   */\n          swap3\n          pop\n          swap3\n          pop\n          swap3\n          jump\t// out\n            /* \"#utility.yul\":1131:1227   */\n        tag_25:\n            /* \"#utility.yul\":1168:1175   */\n          0x00\n            /* \"#utility.yul\":1197:1221   */\n          tag_27\n            /* \"#utility.yul\":1215:1220   */\n          dup3\n            /* \"#utility.yul\":1197:1221   */\n          tag_28\n          jump\t// in\n        tag_27:\n            /* \"#utility.yul\":1186:1221   */\n          swap1\n          pop\n            /* \"#utility.yul\":1131:1227   */\n          swap2\n          swap1\n          pop\n          jump\t// out\n            /* \"#utility.yul\":1233:1348   */\n        tag_29:\n            /* \"#utility.yul\":1289:1296   */\n          0x00\n            /* \"#utility.yul\":1318:1342   */\n          tag_31\n            /* \"#utility.yul\":1336:1341   */\n          dup3\n            /* \"#utility.yul\":1318:1342   */\n          tag_25\n          jump\t// in\n        tag_31:\n            /* \"#utility.yul\":1307:1342   */\n          swap1\n          pop\n            /* \"#utility.yul\":1233:1348   */\n          swap2\n          swap1\n          pop\n          jump\t// out\n            /* \"#utility.yul\":1354:1480   */\n        tag_28:\n            /* \"#utility.yul\":1391:1398   */\n          0x00\n            /* \"#utility.yul\":1431:1473   */\n          0xffffffffffffffffffffffffffffffffffffffff\n            /* \"#utility.yul\":1424:1429   */\n          dup3\n            /* \"#utility.yul\":1420:1474   */\n          and\n            /* \"#utility.yul\":1409:1474   */\n          swap1\n          pop\n            /* \"#utility.yul\":1354:1480   */\n          swap2\n          swap1\n          pop\n          jump\t// out\n            /* \"#utility.yul\":1486:1563   */\n        tag_33:\n            /* \"#utility.yul\":1523:1530   */\n          0x00\n            /* \"#utility.yul\":1552:1557   */\n          dup2\n            /* \"#utility.yul\":1541:1557   */\n          swap1\n          pop\n            /* \"#utility.yul\":1486:1563   */\n          swap2\n          swap1\n          pop\n          jump\t// out\n            /* \"#utility.yul\":1692:1809   */\n        tag_19:\n            /* \"#utility.yul\":1801:1802   */\n          0x00\n            /* \"#utility.yul\":1798:1799   */\n          dup1\n            /* \"#utility.yul\":1791:1803   */\n          revert\n            /* \"#utility.yul\":1815:1975   */\n        tag_11:\n            /* \"#utility.yul\":1907:1950   */\n          tag_39\n            /* \"#utility.yul\":1944:1949   */\n          dup2\n            /* \"#utility.yul\":1907:1950   */\n          tag_29\n          jump\t// in\n        tag_39:\n            /* \"#utility.yul\":1900:1905   */\n          dup2\n            /* \"#utility.yul\":1897:1951   */\n          eq\n            /* \"#utility.yul\":1887:1969   */\n          tag_40\n          jumpi\n            /* \"#utility.yul\":1965:1966   */\n          0x00\n            /* \"#utility.yul\":1962:1963   */\n          dup1\n            /* \"#utility.yul\":1955:1967   */\n          revert\n            /* \"#utility.yul\":1887:1969   */\n        tag_40:\n            /* \"#utility.yul\":1815:1975   */\n          pop\n          jump\t// out\n            /* \"#utility.yul\":1981:2103   */\n        tag_15:\n            /* \"#utility.yul\":2054:2078   */\n          tag_42\n            /* \"#utility.yul\":2072:2077   */\n          dup2\n            /* \"#utility.yul\":2054:2078   */\n          tag_33\n          jump\t// in\n        tag_42:\n            /* \"#utility.yul\":2047:2052   */\n          dup2\n            /* \"#utility.yul\":2044:2079   */\n          eq\n            /* \"#utility.yul\":2034:2097   */\n          tag_43\n          jumpi\n            /* \"#utility.yul\":2093:2094   */\n          0x00\n            /* \"#utility.yul\":2090:2091   */\n          dup1\n            /* \"#utility.yul\":2083:2095   */\n          revert\n            /* \"#utility.yul\":2034:2097   */\n        tag_43:\n            /* \"#utility.yul\":1981:2103   */\n          pop\n          jump\t// out\n            /* \"contracts/Trigger.sol\":27:383  contract Item {\r... */\n        tag_6:\n          dataSize(sub_0)\n          dup1\n          dataOffset(sub_0)\n          0x00\n          codecopy\n          0x00\n          return\n        stop\n\n        sub_0: assembly {\n                /* \"contracts/Trigger.sol\":27:383  contract Item {\r... */\n              mstore(0x40, 0x80)\n              jumpi(tag_1, lt(calldatasize, 0x04))\n              shr(0xe0, calldataload(0x00))\n              dup1\n              0x2986c0e5\n              eq\n              tag_3\n              jumpi\n              dup1\n              0x3c8da588\n              eq\n              tag_4\n              jumpi\n              jump(tag_2)\n            tag_1:\n              jumpi(tag_2, calldatasize)\n              stop\n            tag_2:\n              0x00\n              dup1\n              revert\n                /* \"contracts/Trigger.sol\":77:94  uint public index */\n            tag_3:\n              callvalue\n              dup1\n              iszero\n              tag_7\n              jumpi\n              0x00\n              dup1\n              revert\n            tag_7:\n              pop\n              tag_8\n              tag_9\n              jump\t// in\n            tag_8:\n              mload(0x40)\n              tag_10\n              swap2\n              swap1\n              tag_11\n              jump\t// in\n            tag_10:\n              mload(0x40)\n              dup1\n              swap2\n              sub\n              swap1\n              return\n                /* \"contracts/Trigger.sol\":48:70  uint public priceInWei */\n            tag_4:\n              callvalue\n              dup1\n              iszero\n              tag_12\n              jumpi\n              0x00\n              dup1\n              revert\n            tag_12:\n              pop\n              tag_13\n              tag_14\n              jump\t// in\n            tag_13:\n              mload(0x40)\n              tag_15\n              swap2\n              swap1\n              tag_11\n              jump\t// in\n            tag_15:\n              mload(0x40)\n              dup1\n              swap2\n              sub\n              swap1\n              return\n                /* \"contracts/Trigger.sol\":77:94  uint public index */\n            tag_9:\n              sload(0x01)\n              dup2\n              jump\t// out\n                /* \"contracts/Trigger.sol\":48:70  uint public priceInWei */\n            tag_14:\n              sload(0x00)\n              dup2\n              jump\t// out\n                /* \"#utility.yul\":7:125   */\n            tag_17:\n                /* \"#utility.yul\":94:118   */\n              tag_19\n                /* \"#utility.yul\":112:117   */\n              dup2\n                /* \"#utility.yul\":94:118   */\n              tag_20\n              jump\t// in\n            tag_19:\n                /* \"#utility.yul\":89:92   */\n              dup3\n                /* \"#utility.yul\":82:119   */\n              mstore\n                /* \"#utility.yul\":7:125   */\n              pop\n              pop\n              jump\t// out\n                /* \"#utility.yul\":131:353   */\n            tag_11:\n                /* \"#utility.yul\":224:228   */\n              0x00\n                /* \"#utility.yul\":262:264   */\n              0x20\n                /* \"#utility.yul\":251:260   */\n              dup3\n                /* \"#utility.yul\":247:265   */\n              add\n                /* \"#utility.yul\":239:265   */\n              swap1\n              pop\n                /* \"#utility.yul\":275:346   */\n              tag_22\n                /* \"#utility.yul\":343:344   */\n              0x00\n                /* \"#utility.yul\":332:341   */\n              dup4\n                /* \"#utility.yul\":328:345   */\n              add\n                /* \"#utility.yul\":319:325   */\n              dup5\n                /* \"#utility.yul\":275:346   */\n              tag_17\n              jump\t// in\n            tag_22:\n                /* \"#utility.yul\":131:353   */\n              swap3\n              swap2\n              pop\n              pop\n              jump\t// out\n                /* \"#utility.yul\":359:436   */\n            tag_20:\n                /* \"#utility.yul\":396:403   */\n              0x00\n                /* \"#utility.yul\":425:430   */\n              dup2\n                /* \"#utility.yul\":414:430   */\n              swap1\n              pop\n                /* \"#utility.yul\":359:436   */\n              swap2\n              swap1\n              pop\n              jump\t// out\n\n            auxdata: 0xa264697066735822122049dcefdad513eea79673c9a0eb29165326d46f2ab21a3b0ba0e2dcfa8f40a1bd64736f6c63430008070033\n        }\n    }\n\n    auxdata: 0xa2646970667358221220488ba843846e3ba74b084885213815410fc72adb371294c6389bed1cba355c8164736f6c63430008070033\n}\n",
				"bytecode": {
					"linkReferences": {},
					"object": "608060405234801561001057600080fd5b506110b0806100206000396000f3fe608060405260043610620000445760003560e01c8063800fb83f14620000495780638c5517421462000069578063bfb231d21462000097578063cd31831e14620000de575b600080fd5b62000067600480360381019062000061919062000857565b6200010c565b005b3480156200007657600080fd5b506200009560048036038101906200008f9190620007f1565b620002ae565b005b348015620000a457600080fd5b50620000c36004803603810190620000bd919062000857565b62000469565b604051620000d5949392919062000999565b60405180910390f35b348015620000eb57600080fd5b506200010a600480360381019062000104919062000857565b62000556565b005b34600080838152602001908152602001600020600201541462000166576040517f08c379a00000000000000000000000000000000000000000000000000000000081526004016200015d90620009ed565b60405180910390fd5b600060028111156200017d576200017c62000cbe565b5b60008083815260200190815260200160002060030160009054906101000a900460ff166002811115620001b557620001b462000cbe565b5b14620001f8576040517f08c379a0000000000000000000000000000000000000000000000000000000008152600401620001ef9062000a0f565b60405180910390fd5b600160008083815260200190815260200160002060030160006101000a81548160ff0219169083600281111562000234576200023362000cbe565b5b02179055507f8c198761ba3d324d155cbaf96f0ac38a531c085089e49106d95352535a1110c28160008084815260200190815260200160002060030160009054906101000a900460ff16600281111562000293576200029262000cbe565b5b604051620002a392919062000a31565b60405180910390a150565b60003082600154604051620002c3906200069e565b620002d1939291906200095c565b604051809103906000f080158015620002ee573d6000803e3d6000fd5b50905080600080600154815260200190815260200160002060000160006101000a81548173ffffffffffffffffffffffffffffffffffffffff021916908373ffffffffffffffffffffffffffffffffffffffff160217905550826000806001548152602001908152602001600020600101908051906020019062000374929190620006ac565b50816000806001548152602001908152602001600020600201819055506000806000600154815260200190815260200160002060030160006101000a81548160ff02191690836002811115620003cf57620003ce62000cbe565b5b02179055507f8c198761ba3d324d155cbaf96f0ac38a531c085089e49106d95352535a1110c2600154600080600154815260200190815260200160002060030160009054906101000a900460ff16600281111562000432576200043162000cbe565b5b6040516200044292919062000a31565b60405180910390a1600160008154809291906200045f9062000c41565b9190505550505050565b60006020528060005260406000206000915090508060000160009054906101000a900473ffffffffffffffffffffffffffffffffffffffff1690806001018054620004b49062000bd5565b80601f0160208091040260200160405190810160405280929190818152602001828054620004e29062000bd5565b8015620005335780601f10620005075761010080835404028352916020019162000533565b820191906000526020600020905b8154815290600101906020018083116200051557829003601f168201915b5050505050908060020154908060030160009054906101000a900460ff16905084565b600160028111156200056d576200056c62000cbe565b5b60008083815260200190815260200160002060030160009054906101000a900460ff166002811115620005a557620005a462000cbe565b5b14620005e8576040517f08c379a0000000000000000000000000000000000000000000000000000000008152600401620005df9062000a0f565b60405180910390fd5b600260008083815260200190815260200160002060030160006101000a81548160ff0219169083600281111562000624576200062362000cbe565b5b02179055507f8c198761ba3d324d155cbaf96f0ac38a531c085089e49106d95352535a1110c28160008084815260200190815260200160002060030160009054906101000a900460ff16600281111562000683576200068262000cbe565b5b6040516200069392919062000a31565b60405180910390a150565b6102878062000df483390190565b828054620006ba9062000bd5565b90600052602060002090601f016020900481019282620006de57600085556200072a565b82601f10620006f957805160ff19168380011785556200072a565b828001600101855582156200072a579182015b82811115620007295782518255916020019190600101906200070c565b5b5090506200073991906200073d565b5090565b5b80821115620007585760008160009055506001016200073e565b5090565b6000620007736200076d8462000a87565b62000a5e565b90508281526020810184848401111562000792576200079162000d50565b5b6200079f84828562000b90565b509392505050565b600082601f830112620007bf57620007be62000d4b565b5b8135620007d18482602086016200075c565b91505092915050565b600081359050620007eb8162000dd9565b92915050565b600080604083850312156200080b576200080a62000d5a565b5b600083013567ffffffffffffffff8111156200082c576200082b62000d55565b5b6200083a85828601620007a7565b92505060206200084d85828601620007da565b9150509250929050565b60006020828403121562000870576200086f62000d5a565b5b60006200088084828501620007da565b91505092915050565b620008948162000b18565b82525050565b620008a58162000b2c565b82525050565b620008b68162000b40565b82525050565b6000620008c98262000abd565b620008d5818562000ac8565b9350620008e781856020860162000b9f565b620008f28162000d5f565b840191505092915050565b60006200090c601b8362000ac8565b9150620009198262000d70565b602082019050919050565b60006200093360188362000ac8565b9150620009408262000d99565b602082019050919050565b620009568162000b0e565b82525050565b600060608201905062000973600083018662000889565b6200098260208301856200094b565b6200099160408301846200094b565b949350505050565b6000608082019050620009b060008301876200089a565b8181036020830152620009c48186620008bc565b9050620009d560408301856200094b565b620009e46060830184620008ab565b95945050505050565b6000602082019050818103600083015262000a0881620008fd565b9050919050565b6000602082019050818103600083015262000a2a8162000924565b9050919050565b600060408201905062000a4860008301856200094b565b62000a5760208301846200094b565b9392505050565b600062000a6a62000a7d565b905062000a78828262000c0b565b919050565b6000604051905090565b600067ffffffffffffffff82111562000aa55762000aa462000d1c565b5b62000ab08262000d5f565b9050602081019050919050565b600081519050919050565b600082825260208201905092915050565b600081905062000ae98262000dc2565b919050565b600073ffffffffffffffffffffffffffffffffffffffff82169050919050565b6000819050919050565b600062000b258262000b54565b9050919050565b600062000b398262000b68565b9050919050565b600062000b4d8262000ad9565b9050919050565b600062000b618262000b7c565b9050919050565b600062000b758262000b7c565b9050919050565b600062000b898262000aee565b9050919050565b82818337600083830152505050565b60005b8381101562000bbf57808201518184015260208101905062000ba2565b8381111562000bcf576000848401525b50505050565b6000600282049050600182168062000bee57607f821691505b6020821081141562000c055762000c0462000ced565b5b50919050565b62000c168262000d5f565b810181811067ffffffffffffffff8211171562000c385762000c3762000d1c565b5b80604052505050565b600062000c4e8262000b0e565b91507fffffffffffffffffffffffffffffffffffffffffffffffffffffffffffffffff82141562000c845762000c8362000c8f565b5b600182019050919050565b7f4e487b7100000000000000000000000000000000000000000000000000000000600052601160045260246000fd5b7f4e487b7100000000000000000000000000000000000000000000000000000000600052602160045260246000fd5b7f4e487b7100000000000000000000000000000000000000000000000000000000600052602260045260246000fd5b7f4e487b7100000000000000000000000000000000000000000000000000000000600052604160045260246000fd5b600080fd5b600080fd5b600080fd5b600080fd5b6000601f19601f8301169050919050565b7f4f6e6c792066756c6c207061796d656e74732061636365707465640000000000600082015250565b7f4974656d206973206675727468657220696e20636861696e0000000000000000600082015250565b6003811062000dd65762000dd562000cbe565b5b50565b62000de48162000b0e565b811462000df057600080fd5b5056fe608060405234801561001057600080fd5b50604051610287380380610287833981810160405281019061003291906100b3565b816000819055508060018190555082600260006101000a81548173ffffffffffffffffffffffffffffffffffffffff021916908373ffffffffffffffffffffffffffffffffffffffff160217905550505050610187565b60008151905061009881610159565b92915050565b6000815190506100ad81610170565b92915050565b6000806000606084860312156100cc576100cb610154565b5b60006100da86828701610089565b93505060206100eb8682870161009e565b92505060406100fc8682870161009e565b9150509250925092565b60006101118261012a565b9050919050565b600061012382610106565b9050919050565b600073ffffffffffffffffffffffffffffffffffffffff82169050919050565b6000819050919050565b600080fd5b61016281610118565b811461016d57600080fd5b50565b6101798161014a565b811461018457600080fd5b50565b60f2806101956000396000f3fe60806040526004361060295760003560e01c80632986c0e51460345780633c8da58814605a57602f565b36602f57005b600080fd5b348015603f57600080fd5b5060466080565b604051605191906099565b60405180910390f35b348015606557600080fd5b50606c6086565b604051607791906099565b60405180910390f35b60015481565b60005481565b60938160b2565b82525050565b600060208201905060ac6000830184608c565b92915050565b600081905091905056fea264697066735822122049dcefdad513eea79673c9a0eb29165326d46f2ab21a3b0ba0e2dcfa8f40a1bd64736f6c63430008070033a2646970667358221220488ba843846e3ba74b084885213815410fc72adb371294c6389bed1cba355c8164736f6c63430008070033",
					"opcodes": "PUSH1 0x80 PUSH1 0x40 MSTORE CALLVALUE DUP1 ISZERO PUSH2 0x10 JUMPI PUSH1 0x0 DUP1 REVERT JUMPDEST POP PUSH2 0x10B0 DUP1 PUSH2 0x20 PUSH1 0x0 CODECOPY PUSH1 0x0 RETURN INVALID PUSH1 0x80 PUSH1 0x40 MSTORE PUSH1 0x4 CALLDATASIZE LT PUSH3 0x44 JUMPI PUSH1 0x0 CALLDATALOAD PUSH1 0xE0 SHR DUP1 PUSH4 0x800FB83F EQ PUSH3 0x49 JUMPI DUP1 PUSH4 0x8C551742 EQ PUSH3 0x69 JUMPI DUP1 PUSH4 0xBFB231D2 EQ PUSH3 0x97 JUMPI DUP1 PUSH4 0xCD31831E EQ PUSH3 0xDE JUMPI JUMPDEST PUSH1 0x0 DUP1 REVERT JUMPDEST PUSH3 0x67 PUSH1 0x4 DUP1 CALLDATASIZE SUB DUP2 ADD SWAP1 PUSH3 0x61 SWAP2 SWAP1 PUSH3 0x857 JUMP JUMPDEST PUSH3 0x10C JUMP JUMPDEST STOP JUMPDEST CALLVALUE DUP1 ISZERO PUSH3 0x76 JUMPI PUSH1 0x0 DUP1 REVERT JUMPDEST POP PUSH3 0x95 PUSH1 0x4 DUP1 CALLDATASIZE SUB DUP2 ADD SWAP1 PUSH3 0x8F SWAP2 SWAP1 PUSH3 0x7F1 JUMP JUMPDEST PUSH3 0x2AE JUMP JUMPDEST STOP JUMPDEST CALLVALUE DUP1 ISZERO PUSH3 0xA4 JUMPI PUSH1 0x0 DUP1 REVERT JUMPDEST POP PUSH3 0xC3 PUSH1 0x4 DUP1 CALLDATASIZE SUB DUP2 ADD SWAP1 PUSH3 0xBD SWAP2 SWAP1 PUSH3 0x857 JUMP JUMPDEST PUSH3 0x469 JUMP JUMPDEST PUSH1 0x40 MLOAD PUSH3 0xD5 SWAP5 SWAP4 SWAP3 SWAP2 SWAP1 PUSH3 0x999 JUMP JUMPDEST PUSH1 0x40 MLOAD DUP1 SWAP2 SUB SWAP1 RETURN JUMPDEST CALLVALUE DUP1 ISZERO PUSH3 0xEB JUMPI PUSH1 0x0 DUP1 REVERT JUMPDEST POP PUSH3 0x10A PUSH1 0x4 DUP1 CALLDATASIZE SUB DUP2 ADD SWAP1 PUSH3 0x104 SWAP2 SWAP1 PUSH3 0x857 JUMP JUMPDEST PUSH3 0x556 JUMP JUMPDEST STOP JUMPDEST CALLVALUE PUSH1 0x0 DUP1 DUP4 DUP2 MSTORE PUSH1 0x20 ADD SWAP1 DUP2 MSTORE PUSH1 0x20 ADD PUSH1 0x0 KECCAK256 PUSH1 0x2 ADD SLOAD EQ PUSH3 0x166 JUMPI PUSH1 0x40 MLOAD PUSH32 0x8C379A000000000000000000000000000000000000000000000000000000000 DUP2 MSTORE PUSH1 0x4 ADD PUSH3 0x15D SWAP1 PUSH3 0x9ED JUMP JUMPDEST PUSH1 0x40 MLOAD DUP1 SWAP2 SUB SWAP1 REVERT JUMPDEST PUSH1 0x0 PUSH1 0x2 DUP2 GT ISZERO PUSH3 0x17D JUMPI PUSH3 0x17C PUSH3 0xCBE JUMP JUMPDEST JUMPDEST PUSH1 0x0 DUP1 DUP4 DUP2 MSTORE PUSH1 0x20 ADD SWAP1 DUP2 MSTORE PUSH1 0x20 ADD PUSH1 0x0 KECCAK256 PUSH1 0x3 ADD PUSH1 0x0 SWAP1 SLOAD SWAP1 PUSH2 0x100 EXP SWAP1 DIV PUSH1 0xFF AND PUSH1 0x2 DUP2 GT ISZERO PUSH3 0x1B5 JUMPI PUSH3 0x1B4 PUSH3 0xCBE JUMP JUMPDEST JUMPDEST EQ PUSH3 0x1F8 JUMPI PUSH1 0x40 MLOAD PUSH32 0x8C379A000000000000000000000000000000000000000000000000000000000 DUP2 MSTORE PUSH1 0x4 ADD PUSH3 0x1EF SWAP1 PUSH3 0xA0F JUMP JUMPDEST PUSH1 0x40 MLOAD DUP1 SWAP2 SUB SWAP1 REVERT JUMPDEST PUSH1 0x1 PUSH1 0x0 DUP1 DUP4 DUP2 MSTORE PUSH1 0x20 ADD SWAP1 DUP2 MSTORE PUSH1 0x20 ADD PUSH1 0x0 KECCAK256 PUSH1 0x3 ADD PUSH1 0x0 PUSH2 0x100 EXP DUP2 SLOAD DUP2 PUSH1 0xFF MUL NOT AND SWAP1 DUP4 PUSH1 0x2 DUP2 GT ISZERO PUSH3 0x234 JUMPI PUSH3 0x233 PUSH3 0xCBE JUMP JUMPDEST JUMPDEST MUL OR SWAP1 SSTORE POP PUSH32 0x8C198761BA3D324D155CBAF96F0AC38A531C085089E49106D95352535A1110C2 DUP2 PUSH1 0x0 DUP1 DUP5 DUP2 MSTORE PUSH1 0x20 ADD SWAP1 DUP2 MSTORE PUSH1 0x20 ADD PUSH1 0x0 KECCAK256 PUSH1 0x3 ADD PUSH1 0x0 SWAP1 SLOAD SWAP1 PUSH2 0x100 EXP SWAP1 DIV PUSH1 0xFF AND PUSH1 0x2 DUP2 GT ISZERO PUSH3 0x293 JUMPI PUSH3 0x292 PUSH3 0xCBE JUMP JUMPDEST JUMPDEST PUSH1 0x40 MLOAD PUSH3 0x2A3 SWAP3 SWAP2 SWAP1 PUSH3 0xA31 JUMP JUMPDEST PUSH1 0x40 MLOAD DUP1 SWAP2 SUB SWAP1 LOG1 POP JUMP JUMPDEST PUSH1 0x0 ADDRESS DUP3 PUSH1 0x1 SLOAD PUSH1 0x40 MLOAD PUSH3 0x2C3 SWAP1 PUSH3 0x69E JUMP JUMPDEST PUSH3 0x2D1 SWAP4 SWAP3 SWAP2 SWAP1 PUSH3 0x95C JUMP JUMPDEST PUSH1 0x40 MLOAD DUP1 SWAP2 SUB SWAP1 PUSH1 0x0 CREATE DUP1 ISZERO DUP1 ISZERO PUSH3 0x2EE JUMPI RETURNDATASIZE PUSH1 0x0 DUP1 RETURNDATACOPY RETURNDATASIZE PUSH1 0x0 REVERT JUMPDEST POP SWAP1 POP DUP1 PUSH1 0x0 DUP1 PUSH1 0x1 SLOAD DUP2 MSTORE PUSH1 0x20 ADD SWAP1 DUP2 MSTORE PUSH1 0x20 ADD PUSH1 0x0 KECCAK256 PUSH1 0x0 ADD PUSH1 0x0 PUSH2 0x100 EXP DUP2 SLOAD DUP2 PUSH20 0xFFFFFFFFFFFFFFFFFFFFFFFFFFFFFFFFFFFFFFFF MUL NOT AND SWAP1 DUP4 PUSH20 0xFFFFFFFFFFFFFFFFFFFFFFFFFFFFFFFFFFFFFFFF AND MUL OR SWAP1 SSTORE POP DUP3 PUSH1 0x0 DUP1 PUSH1 0x1 SLOAD DUP2 MSTORE PUSH1 0x20 ADD SWAP1 DUP2 MSTORE PUSH1 0x20 ADD PUSH1 0x0 KECCAK256 PUSH1 0x1 ADD SWAP1 DUP1 MLOAD SWAP1 PUSH1 0x20 ADD SWAP1 PUSH3 0x374 SWAP3 SWAP2 SWAP1 PUSH3 0x6AC JUMP JUMPDEST POP DUP2 PUSH1 0x0 DUP1 PUSH1 0x1 SLOAD DUP2 MSTORE PUSH1 0x20 ADD SWAP1 DUP2 MSTORE PUSH1 0x20 ADD PUSH1 0x0 KECCAK256 PUSH1 0x2 ADD DUP2 SWAP1 SSTORE POP PUSH1 0x0 DUP1 PUSH1 0x0 PUSH1 0x1 SLOAD DUP2 MSTORE PUSH1 0x20 ADD SWAP1 DUP2 MSTORE PUSH1 0x20 ADD PUSH1 0x0 KECCAK256 PUSH1 0x3 ADD PUSH1 0x0 PUSH2 0x100 EXP DUP2 SLOAD DUP2 PUSH1 0xFF MUL NOT AND SWAP1 DUP4 PUSH1 0x2 DUP2 GT ISZERO PUSH3 0x3CF JUMPI PUSH3 0x3CE PUSH3 0xCBE JUMP JUMPDEST JUMPDEST MUL OR SWAP1 SSTORE POP PUSH32 0x8C198761BA3D324D155CBAF96F0AC38A531C085089E49106D95352535A1110C2 PUSH1 0x1 SLOAD PUSH1 0x0 DUP1 PUSH1 0x1 SLOAD DUP2 MSTORE PUSH1 0x20 ADD SWAP1 DUP2 MSTORE PUSH1 0x20 ADD PUSH1 0x0 KECCAK256 PUSH1 0x3 ADD PUSH1 0x0 SWAP1 SLOAD SWAP1 PUSH2 0x100 EXP SWAP1 DIV PUSH1 0xFF AND PUSH1 0x2 DUP2 GT ISZERO PUSH3 0x432 JUMPI PUSH3 0x431 PUSH3 0xCBE JUMP JUMPDEST JUMPDEST PUSH1 0x40 MLOAD PUSH3 0x442 SWAP3 SWAP2 SWAP1 PUSH3 0xA31 JUMP JUMPDEST PUSH1 0x40 MLOAD DUP1 SWAP2 SUB SWAP1 LOG1 PUSH1 0x1 PUSH1 0x0 DUP2 SLOAD DUP1 SWAP3 SWAP2 SWAP1 PUSH3 0x45F SWAP1 PUSH3 0xC41 JUMP JUMPDEST SWAP2 SWAP1 POP SSTORE POP POP POP POP JUMP JUMPDEST PUSH1 0x0 PUSH1 0x20 MSTORE DUP1 PUSH1 0x0 MSTORE PUSH1 0x40 PUSH1 0x0 KECCAK256 PUSH1 0x0 SWAP2 POP SWAP1 POP DUP1 PUSH1 0x0 ADD PUSH1 0x0 SWAP1 SLOAD SWAP1 PUSH2 0x100 EXP SWAP1 DIV PUSH20 0xFFFFFFFFFFFFFFFFFFFFFFFFFFFFFFFFFFFFFFFF AND SWAP1 DUP1 PUSH1 0x1 ADD DUP1 SLOAD PUSH3 0x4B4 SWAP1 PUSH3 0xBD5 JUMP JUMPDEST DUP1 PUSH1 0x1F ADD PUSH1 0x20 DUP1 SWAP2 DIV MUL PUSH1 0x20 ADD PUSH1 0x40 MLOAD SWAP1 DUP2 ADD PUSH1 0x40 MSTORE DUP1 SWAP3 SWAP2 SWAP1 DUP2 DUP2 MSTORE PUSH1 0x20 ADD DUP3 DUP1 SLOAD PUSH3 0x4E2 SWAP1 PUSH3 0xBD5 JUMP JUMPDEST DUP1 ISZERO PUSH3 0x533 JUMPI DUP1 PUSH1 0x1F LT PUSH3 0x507 JUMPI PUSH2 0x100 DUP1 DUP4 SLOAD DIV MUL DUP4 MSTORE SWAP2 PUSH1 0x20 ADD SWAP2 PUSH3 0x533 JUMP JUMPDEST DUP3 ADD SWAP2 SWAP1 PUSH1 0x0 MSTORE PUSH1 0x20 PUSH1 0x0 KECCAK256 SWAP1 JUMPDEST DUP2 SLOAD DUP2 MSTORE SWAP1 PUSH1 0x1 ADD SWAP1 PUSH1 0x20 ADD DUP1 DUP4 GT PUSH3 0x515 JUMPI DUP3 SWAP1 SUB PUSH1 0x1F AND DUP3 ADD SWAP2 JUMPDEST POP POP POP POP POP SWAP1 DUP1 PUSH1 0x2 ADD SLOAD SWAP1 DUP1 PUSH1 0x3 ADD PUSH1 0x0 SWAP1 SLOAD SWAP1 PUSH2 0x100 EXP SWAP1 DIV PUSH1 0xFF AND SWAP1 POP DUP5 JUMP JUMPDEST PUSH1 0x1 PUSH1 0x2 DUP2 GT ISZERO PUSH3 0x56D JUMPI PUSH3 0x56C PUSH3 0xCBE JUMP JUMPDEST JUMPDEST PUSH1 0x0 DUP1 DUP4 DUP2 MSTORE PUSH1 0x20 ADD SWAP1 DUP2 MSTORE PUSH1 0x20 ADD PUSH1 0x0 KECCAK256 PUSH1 0x3 ADD PUSH1 0x0 SWAP1 SLOAD SWAP1 PUSH2 0x100 EXP SWAP1 DIV PUSH1 0xFF AND PUSH1 0x2 DUP2 GT ISZERO PUSH3 0x5A5 JUMPI PUSH3 0x5A4 PUSH3 0xCBE JUMP JUMPDEST JUMPDEST EQ PUSH3 0x5E8 JUMPI PUSH1 0x40 MLOAD PUSH32 0x8C379A000000000000000000000000000000000000000000000000000000000 DUP2 MSTORE PUSH1 0x4 ADD PUSH3 0x5DF SWAP1 PUSH3 0xA0F JUMP JUMPDEST PUSH1 0x40 MLOAD DUP1 SWAP2 SUB SWAP1 REVERT JUMPDEST PUSH1 0x2 PUSH1 0x0 DUP1 DUP4 DUP2 MSTORE PUSH1 0x20 ADD SWAP1 DUP2 MSTORE PUSH1 0x20 ADD PUSH1 0x0 KECCAK256 PUSH1 0x3 ADD PUSH1 0x0 PUSH2 0x100 EXP DUP2 SLOAD DUP2 PUSH1 0xFF MUL NOT AND SWAP1 DUP4 PUSH1 0x2 DUP2 GT ISZERO PUSH3 0x624 JUMPI PUSH3 0x623 PUSH3 0xCBE JUMP JUMPDEST JUMPDEST MUL OR SWAP1 SSTORE POP PUSH32 0x8C198761BA3D324D155CBAF96F0AC38A531C085089E49106D95352535A1110C2 DUP2 PUSH1 0x0 DUP1 DUP5 DUP2 MSTORE PUSH1 0x20 ADD SWAP1 DUP2 MSTORE PUSH1 0x20 ADD PUSH1 0x0 KECCAK256 PUSH1 0x3 ADD PUSH1 0x0 SWAP1 SLOAD SWAP1 PUSH2 0x100 EXP SWAP1 DIV PUSH1 0xFF AND PUSH1 0x2 DUP2 GT ISZERO PUSH3 0x683 JUMPI PUSH3 0x682 PUSH3 0xCBE JUMP JUMPDEST JUMPDEST PUSH1 0x40 MLOAD PUSH3 0x693 SWAP3 SWAP2 SWAP1 PUSH3 0xA31 JUMP JUMPDEST PUSH1 0x40 MLOAD DUP1 SWAP2 SUB SWAP1 LOG1 POP JUMP JUMPDEST PUSH2 0x287 DUP1 PUSH3 0xDF4 DUP4 CODECOPY ADD SWAP1 JUMP JUMPDEST DUP3 DUP1 SLOAD PUSH3 0x6BA SWAP1 PUSH3 0xBD5 JUMP JUMPDEST SWAP1 PUSH1 0x0 MSTORE PUSH1 0x20 PUSH1 0x0 KECCAK256 SWAP1 PUSH1 0x1F ADD PUSH1 0x20 SWAP1 DIV DUP2 ADD SWAP3 DUP3 PUSH3 0x6DE JUMPI PUSH1 0x0 DUP6 SSTORE PUSH3 0x72A JUMP JUMPDEST DUP3 PUSH1 0x1F LT PUSH3 0x6F9 JUMPI DUP1 MLOAD PUSH1 0xFF NOT AND DUP4 DUP1 ADD OR DUP6 SSTORE PUSH3 0x72A JUMP JUMPDEST DUP3 DUP1 ADD PUSH1 0x1 ADD DUP6 SSTORE DUP3 ISZERO PUSH3 0x72A JUMPI SWAP2 DUP3 ADD JUMPDEST DUP3 DUP2 GT ISZERO PUSH3 0x729 JUMPI DUP3 MLOAD DUP3 SSTORE SWAP2 PUSH1 0x20 ADD SWAP2 SWAP1 PUSH1 0x1 ADD SWAP1 PUSH3 0x70C JUMP JUMPDEST JUMPDEST POP SWAP1 POP PUSH3 0x739 SWAP2 SWAP1 PUSH3 0x73D JUMP JUMPDEST POP SWAP1 JUMP JUMPDEST JUMPDEST DUP1 DUP3 GT ISZERO PUSH3 0x758 JUMPI PUSH1 0x0 DUP2 PUSH1 0x0 SWAP1 SSTORE POP PUSH1 0x1 ADD PUSH3 0x73E JUMP JUMPDEST POP SWAP1 JUMP JUMPDEST PUSH1 0x0 PUSH3 0x773 PUSH3 0x76D DUP5 PUSH3 0xA87 JUMP JUMPDEST PUSH3 0xA5E JUMP JUMPDEST SWAP1 POP DUP3 DUP2 MSTORE PUSH1 0x20 DUP2 ADD DUP5 DUP5 DUP5 ADD GT ISZERO PUSH3 0x792 JUMPI PUSH3 0x791 PUSH3 0xD50 JUMP JUMPDEST JUMPDEST PUSH3 0x79F DUP5 DUP3 DUP6 PUSH3 0xB90 JUMP JUMPDEST POP SWAP4 SWAP3 POP POP POP JUMP JUMPDEST PUSH1 0x0 DUP3 PUSH1 0x1F DUP4 ADD SLT PUSH3 0x7BF JUMPI PUSH3 0x7BE PUSH3 0xD4B JUMP JUMPDEST JUMPDEST DUP2 CALLDATALOAD PUSH3 0x7D1 DUP5 DUP3 PUSH1 0x20 DUP7 ADD PUSH3 0x75C JUMP JUMPDEST SWAP2 POP POP SWAP3 SWAP2 POP POP JUMP JUMPDEST PUSH1 0x0 DUP2 CALLDATALOAD SWAP1 POP PUSH3 0x7EB DUP2 PUSH3 0xDD9 JUMP JUMPDEST SWAP3 SWAP2 POP POP JUMP JUMPDEST PUSH1 0x0 DUP1 PUSH1 0x40 DUP4 DUP6 SUB SLT ISZERO PUSH3 0x80B JUMPI PUSH3 0x80A PUSH3 0xD5A JUMP JUMPDEST JUMPDEST PUSH1 0x0 DUP4 ADD CALLDATALOAD PUSH8 0xFFFFFFFFFFFFFFFF DUP2 GT ISZERO PUSH3 0x82C JUMPI PUSH3 0x82B PUSH3 0xD55 JUMP JUMPDEST JUMPDEST PUSH3 0x83A DUP6 DUP3 DUP7 ADD PUSH3 0x7A7 JUMP JUMPDEST SWAP3 POP POP PUSH1 0x20 PUSH3 0x84D DUP6 DUP3 DUP7 ADD PUSH3 0x7DA JUMP JUMPDEST SWAP2 POP POP SWAP3 POP SWAP3 SWAP1 POP JUMP JUMPDEST PUSH1 0x0 PUSH1 0x20 DUP3 DUP5 SUB SLT ISZERO PUSH3 0x870 JUMPI PUSH3 0x86F PUSH3 0xD5A JUMP JUMPDEST JUMPDEST PUSH1 0x0 PUSH3 0x880 DUP5 DUP3 DUP6 ADD PUSH3 0x7DA JUMP JUMPDEST SWAP2 POP POP SWAP3 SWAP2 POP POP JUMP JUMPDEST PUSH3 0x894 DUP2 PUSH3 0xB18 JUMP JUMPDEST DUP3 MSTORE POP POP JUMP JUMPDEST PUSH3 0x8A5 DUP2 PUSH3 0xB2C JUMP JUMPDEST DUP3 MSTORE POP POP JUMP JUMPDEST PUSH3 0x8B6 DUP2 PUSH3 0xB40 JUMP JUMPDEST DUP3 MSTORE POP POP JUMP JUMPDEST PUSH1 0x0 PUSH3 0x8C9 DUP3 PUSH3 0xABD JUMP JUMPDEST PUSH3 0x8D5 DUP2 DUP6 PUSH3 0xAC8 JUMP JUMPDEST SWAP4 POP PUSH3 0x8E7 DUP2 DUP6 PUSH1 0x20 DUP7 ADD PUSH3 0xB9F JUMP JUMPDEST PUSH3 0x8F2 DUP2 PUSH3 0xD5F JUMP JUMPDEST DUP5 ADD SWAP2 POP POP SWAP3 SWAP2 POP POP JUMP JUMPDEST PUSH1 0x0 PUSH3 0x90C PUSH1 0x1B DUP4 PUSH3 0xAC8 JUMP JUMPDEST SWAP2 POP PUSH3 0x919 DUP3 PUSH3 0xD70 JUMP JUMPDEST PUSH1 0x20 DUP3 ADD SWAP1 POP SWAP2 SWAP1 POP JUMP JUMPDEST PUSH1 0x0 PUSH3 0x933 PUSH1 0x18 DUP4 PUSH3 0xAC8 JUMP JUMPDEST SWAP2 POP PUSH3 0x940 DUP3 PUSH3 0xD99 JUMP JUMPDEST PUSH1 0x20 DUP3 ADD SWAP1 POP SWAP2 SWAP1 POP JUMP JUMPDEST PUSH3 0x956 DUP2 PUSH3 0xB0E JUMP JUMPDEST DUP3 MSTORE POP POP JUMP JUMPDEST PUSH1 0x0 PUSH1 0x60 DUP3 ADD SWAP1 POP PUSH3 0x973 PUSH1 0x0 DUP4 ADD DUP7 PUSH3 0x889 JUMP JUMPDEST PUSH3 0x982 PUSH1 0x20 DUP4 ADD DUP6 PUSH3 0x94B JUMP JUMPDEST PUSH3 0x991 PUSH1 0x40 DUP4 ADD DUP5 PUSH3 0x94B JUMP JUMPDEST SWAP5 SWAP4 POP POP POP POP JUMP JUMPDEST PUSH1 0x0 PUSH1 0x80 DUP3 ADD SWAP1 POP PUSH3 0x9B0 PUSH1 0x0 DUP4 ADD DUP8 PUSH3 0x89A JUMP JUMPDEST DUP2 DUP2 SUB PUSH1 0x20 DUP4 ADD MSTORE PUSH3 0x9C4 DUP2 DUP7 PUSH3 0x8BC JUMP JUMPDEST SWAP1 POP PUSH3 0x9D5 PUSH1 0x40 DUP4 ADD DUP6 PUSH3 0x94B JUMP JUMPDEST PUSH3 0x9E4 PUSH1 0x60 DUP4 ADD DUP5 PUSH3 0x8AB JUMP JUMPDEST SWAP6 SWAP5 POP POP POP POP POP JUMP JUMPDEST PUSH1 0x0 PUSH1 0x20 DUP3 ADD SWAP1 POP DUP2 DUP2 SUB PUSH1 0x0 DUP4 ADD MSTORE PUSH3 0xA08 DUP2 PUSH3 0x8FD JUMP JUMPDEST SWAP1 POP SWAP2 SWAP1 POP JUMP JUMPDEST PUSH1 0x0 PUSH1 0x20 DUP3 ADD SWAP1 POP DUP2 DUP2 SUB PUSH1 0x0 DUP4 ADD MSTORE PUSH3 0xA2A DUP2 PUSH3 0x924 JUMP JUMPDEST SWAP1 POP SWAP2 SWAP1 POP JUMP JUMPDEST PUSH1 0x0 PUSH1 0x40 DUP3 ADD SWAP1 POP PUSH3 0xA48 PUSH1 0x0 DUP4 ADD DUP6 PUSH3 0x94B JUMP JUMPDEST PUSH3 0xA57 PUSH1 0x20 DUP4 ADD DUP5 PUSH3 0x94B JUMP JUMPDEST SWAP4 SWAP3 POP POP POP JUMP JUMPDEST PUSH1 0x0 PUSH3 0xA6A PUSH3 0xA7D JUMP JUMPDEST SWAP1 POP PUSH3 0xA78 DUP3 DUP3 PUSH3 0xC0B JUMP JUMPDEST SWAP2 SWAP1 POP JUMP JUMPDEST PUSH1 0x0 PUSH1 0x40 MLOAD SWAP1 POP SWAP1 JUMP JUMPDEST PUSH1 0x0 PUSH8 0xFFFFFFFFFFFFFFFF DUP3 GT ISZERO PUSH3 0xAA5 JUMPI PUSH3 0xAA4 PUSH3 0xD1C JUMP JUMPDEST JUMPDEST PUSH3 0xAB0 DUP3 PUSH3 0xD5F JUMP JUMPDEST SWAP1 POP PUSH1 0x20 DUP2 ADD SWAP1 POP SWAP2 SWAP1 POP JUMP JUMPDEST PUSH1 0x0 DUP2 MLOAD SWAP1 POP SWAP2 SWAP1 POP JUMP JUMPDEST PUSH1 0x0 DUP3 DUP3 MSTORE PUSH1 0x20 DUP3 ADD SWAP1 POP SWAP3 SWAP2 POP POP JUMP JUMPDEST PUSH1 0x0 DUP2 SWAP1 POP PUSH3 0xAE9 DUP3 PUSH3 0xDC2 JUMP JUMPDEST SWAP2 SWAP1 POP JUMP JUMPDEST PUSH1 0x0 PUSH20 0xFFFFFFFFFFFFFFFFFFFFFFFFFFFFFFFFFFFFFFFF DUP3 AND SWAP1 POP SWAP2 SWAP1 POP JUMP JUMPDEST PUSH1 0x0 DUP2 SWAP1 POP SWAP2 SWAP1 POP JUMP JUMPDEST PUSH1 0x0 PUSH3 0xB25 DUP3 PUSH3 0xB54 JUMP JUMPDEST SWAP1 POP SWAP2 SWAP1 POP JUMP JUMPDEST PUSH1 0x0 PUSH3 0xB39 DUP3 PUSH3 0xB68 JUMP JUMPDEST SWAP1 POP SWAP2 SWAP1 POP JUMP JUMPDEST PUSH1 0x0 PUSH3 0xB4D DUP3 PUSH3 0xAD9 JUMP JUMPDEST SWAP1 POP SWAP2 SWAP1 POP JUMP JUMPDEST PUSH1 0x0 PUSH3 0xB61 DUP3 PUSH3 0xB7C JUMP JUMPDEST SWAP1 POP SWAP2 SWAP1 POP JUMP JUMPDEST PUSH1 0x0 PUSH3 0xB75 DUP3 PUSH3 0xB7C JUMP JUMPDEST SWAP1 POP SWAP2 SWAP1 POP JUMP JUMPDEST PUSH1 0x0 PUSH3 0xB89 DUP3 PUSH3 0xAEE JUMP JUMPDEST SWAP1 POP SWAP2 SWAP1 POP JUMP JUMPDEST DUP3 DUP2 DUP4 CALLDATACOPY PUSH1 0x0 DUP4 DUP4 ADD MSTORE POP POP POP JUMP JUMPDEST PUSH1 0x0 JUMPDEST DUP4 DUP2 LT ISZERO PUSH3 0xBBF JUMPI DUP1 DUP3 ADD MLOAD DUP2 DUP5 ADD MSTORE PUSH1 0x20 DUP2 ADD SWAP1 POP PUSH3 0xBA2 JUMP JUMPDEST DUP4 DUP2 GT ISZERO PUSH3 0xBCF JUMPI PUSH1 0x0 DUP5 DUP5 ADD MSTORE JUMPDEST POP POP POP POP JUMP JUMPDEST PUSH1 0x0 PUSH1 0x2 DUP3 DIV SWAP1 POP PUSH1 0x1 DUP3 AND DUP1 PUSH3 0xBEE JUMPI PUSH1 0x7F DUP3 AND SWAP2 POP JUMPDEST PUSH1 0x20 DUP3 LT DUP2 EQ ISZERO PUSH3 0xC05 JUMPI PUSH3 0xC04 PUSH3 0xCED JUMP JUMPDEST JUMPDEST POP SWAP2 SWAP1 POP JUMP JUMPDEST PUSH3 0xC16 DUP3 PUSH3 0xD5F JUMP JUMPDEST DUP2 ADD DUP2 DUP2 LT PUSH8 0xFFFFFFFFFFFFFFFF DUP3 GT OR ISZERO PUSH3 0xC38 JUMPI PUSH3 0xC37 PUSH3 0xD1C JUMP JUMPDEST JUMPDEST DUP1 PUSH1 0x40 MSTORE POP POP POP JUMP JUMPDEST PUSH1 0x0 PUSH3 0xC4E DUP3 PUSH3 0xB0E JUMP JUMPDEST SWAP2 POP PUSH32 0xFFFFFFFFFFFFFFFFFFFFFFFFFFFFFFFFFFFFFFFFFFFFFFFFFFFFFFFFFFFFFFFF DUP3 EQ ISZERO PUSH3 0xC84 JUMPI PUSH3 0xC83 PUSH3 0xC8F JUMP JUMPDEST JUMPDEST PUSH1 0x1 DUP3 ADD SWAP1 POP SWAP2 SWAP1 POP JUMP JUMPDEST PUSH32 0x4E487B7100000000000000000000000000000000000000000000000000000000 PUSH1 0x0 MSTORE PUSH1 0x11 PUSH1 0x4 MSTORE PUSH1 0x24 PUSH1 0x0 REVERT JUMPDEST PUSH32 0x4E487B7100000000000000000000000000000000000000000000000000000000 PUSH1 0x0 MSTORE PUSH1 0x21 PUSH1 0x4 MSTORE PUSH1 0x24 PUSH1 0x0 REVERT JUMPDEST PUSH32 0x4E487B7100000000000000000000000000000000000000000000000000000000 PUSH1 0x0 MSTORE PUSH1 0x22 PUSH1 0x4 MSTORE PUSH1 0x24 PUSH1 0x0 REVERT JUMPDEST PUSH32 0x4E487B7100000000000000000000000000000000000000000000000000000000 PUSH1 0x0 MSTORE PUSH1 0x41 PUSH1 0x4 MSTORE PUSH1 0x24 PUSH1 0x0 REVERT JUMPDEST PUSH1 0x0 DUP1 REVERT JUMPDEST PUSH1 0x0 DUP1 REVERT JUMPDEST PUSH1 0x0 DUP1 REVERT JUMPDEST PUSH1 0x0 DUP1 REVERT JUMPDEST PUSH1 0x0 PUSH1 0x1F NOT PUSH1 0x1F DUP4 ADD AND SWAP1 POP SWAP2 SWAP1 POP JUMP JUMPDEST PUSH32 0x4F6E6C792066756C6C207061796D656E74732061636365707465640000000000 PUSH1 0x0 DUP3 ADD MSTORE POP JUMP JUMPDEST PUSH32 0x4974656D206973206675727468657220696E20636861696E0000000000000000 PUSH1 0x0 DUP3 ADD MSTORE POP JUMP JUMPDEST PUSH1 0x3 DUP2 LT PUSH3 0xDD6 JUMPI PUSH3 0xDD5 PUSH3 0xCBE JUMP JUMPDEST JUMPDEST POP JUMP JUMPDEST PUSH3 0xDE4 DUP2 PUSH3 0xB0E JUMP JUMPDEST DUP2 EQ PUSH3 0xDF0 JUMPI PUSH1 0x0 DUP1 REVERT JUMPDEST POP JUMP INVALID PUSH1 0x80 PUSH1 0x40 MSTORE CALLVALUE DUP1 ISZERO PUSH2 0x10 JUMPI PUSH1 0x0 DUP1 REVERT JUMPDEST POP PUSH1 0x40 MLOAD PUSH2 0x287 CODESIZE SUB DUP1 PUSH2 0x287 DUP4 CODECOPY DUP2 DUP2 ADD PUSH1 0x40 MSTORE DUP2 ADD SWAP1 PUSH2 0x32 SWAP2 SWAP1 PUSH2 0xB3 JUMP JUMPDEST DUP2 PUSH1 0x0 DUP2 SWAP1 SSTORE POP DUP1 PUSH1 0x1 DUP2 SWAP1 SSTORE POP DUP3 PUSH1 0x2 PUSH1 0x0 PUSH2 0x100 EXP DUP2 SLOAD DUP2 PUSH20 0xFFFFFFFFFFFFFFFFFFFFFFFFFFFFFFFFFFFFFFFF MUL NOT AND SWAP1 DUP4 PUSH20 0xFFFFFFFFFFFFFFFFFFFFFFFFFFFFFFFFFFFFFFFF AND MUL OR SWAP1 SSTORE POP POP POP POP PUSH2 0x187 JUMP JUMPDEST PUSH1 0x0 DUP2 MLOAD SWAP1 POP PUSH2 0x98 DUP2 PUSH2 0x159 JUMP JUMPDEST SWAP3 SWAP2 POP POP JUMP JUMPDEST PUSH1 0x0 DUP2 MLOAD SWAP1 POP PUSH2 0xAD DUP2 PUSH2 0x170 JUMP JUMPDEST SWAP3 SWAP2 POP POP JUMP JUMPDEST PUSH1 0x0 DUP1 PUSH1 0x0 PUSH1 0x60 DUP5 DUP7 SUB SLT ISZERO PUSH2 0xCC JUMPI PUSH2 0xCB PUSH2 0x154 JUMP JUMPDEST JUMPDEST PUSH1 0x0 PUSH2 0xDA DUP7 DUP3 DUP8 ADD PUSH2 0x89 JUMP JUMPDEST SWAP4 POP POP PUSH1 0x20 PUSH2 0xEB DUP7 DUP3 DUP8 ADD PUSH2 0x9E JUMP JUMPDEST SWAP3 POP POP PUSH1 0x40 PUSH2 0xFC DUP7 DUP3 DUP8 ADD PUSH2 0x9E JUMP JUMPDEST SWAP2 POP POP SWAP3 POP SWAP3 POP SWAP3 JUMP JUMPDEST PUSH1 0x0 PUSH2 0x111 DUP3 PUSH2 0x12A JUMP JUMPDEST SWAP1 POP SWAP2 SWAP1 POP JUMP JUMPDEST PUSH1 0x0 PUSH2 0x123 DUP3 PUSH2 0x106 JUMP JUMPDEST SWAP1 POP SWAP2 SWAP1 POP JUMP JUMPDEST PUSH1 0x0 PUSH20 0xFFFFFFFFFFFFFFFFFFFFFFFFFFFFFFFFFFFFFFFF DUP3 AND SWAP1 POP SWAP2 SWAP1 POP JUMP JUMPDEST PUSH1 0x0 DUP2 SWAP1 POP SWAP2 SWAP1 POP JUMP JUMPDEST PUSH1 0x0 DUP1 REVERT JUMPDEST PUSH2 0x162 DUP2 PUSH2 0x118 JUMP JUMPDEST DUP2 EQ PUSH2 0x16D JUMPI PUSH1 0x0 DUP1 REVERT JUMPDEST POP JUMP JUMPDEST PUSH2 0x179 DUP2 PUSH2 0x14A JUMP JUMPDEST DUP2 EQ PUSH2 0x184 JUMPI PUSH1 0x0 DUP1 REVERT JUMPDEST POP JUMP JUMPDEST PUSH1 0xF2 DUP1 PUSH2 0x195 PUSH1 0x0 CODECOPY PUSH1 0x0 RETURN INVALID PUSH1 0x80 PUSH1 0x40 MSTORE PUSH1 0x4 CALLDATASIZE LT PUSH1 0x29 JUMPI PUSH1 0x0 CALLDATALOAD PUSH1 0xE0 SHR DUP1 PUSH4 0x2986C0E5 EQ PUSH1 0x34 JUMPI DUP1 PUSH4 0x3C8DA588 EQ PUSH1 0x5A JUMPI PUSH1 0x2F JUMP JUMPDEST CALLDATASIZE PUSH1 0x2F JUMPI STOP JUMPDEST PUSH1 0x0 DUP1 REVERT JUMPDEST CALLVALUE DUP1 ISZERO PUSH1 0x3F JUMPI PUSH1 0x0 DUP1 REVERT JUMPDEST POP PUSH1 0x46 PUSH1 0x80 JUMP JUMPDEST PUSH1 0x40 MLOAD PUSH1 0x51 SWAP2 SWAP1 PUSH1 0x99 JUMP JUMPDEST PUSH1 0x40 MLOAD DUP1 SWAP2 SUB SWAP1 RETURN JUMPDEST CALLVALUE DUP1 ISZERO PUSH1 0x65 JUMPI PUSH1 0x0 DUP1 REVERT JUMPDEST POP PUSH1 0x6C PUSH1 0x86 JUMP JUMPDEST PUSH1 0x40 MLOAD PUSH1 0x77 SWAP2 SWAP1 PUSH1 0x99 JUMP JUMPDEST PUSH1 0x40 MLOAD DUP1 SWAP2 SUB SWAP1 RETURN JUMPDEST PUSH1 0x1 SLOAD DUP2 JUMP JUMPDEST PUSH1 0x0 SLOAD DUP2 JUMP JUMPDEST PUSH1 0x93 DUP2 PUSH1 0xB2 JUMP JUMPDEST DUP3 MSTORE POP POP JUMP JUMPDEST PUSH1 0x0 PUSH1 0x20 DUP3 ADD SWAP1 POP PUSH1 0xAC PUSH1 0x0 DUP4 ADD DUP5 PUSH1 0x8C JUMP JUMPDEST SWAP3 SWAP2 POP POP JUMP JUMPDEST PUSH1 0x0 DUP2 SWAP1 POP SWAP2 SWAP1 POP JUMP INVALID LOG2 PUSH5 0x6970667358 0x22 SLT KECCAK256 0x49 0xDC 0xEF 0xDA 0xD5 SGT 0xEE 0xA7 SWAP7 PUSH20 0xC9A0EB29165326D46F2AB21A3B0BA0E2DCFA8F40 LOG1 0xBD PUSH5 0x736F6C6343 STOP ADDMOD SMOD STOP CALLER LOG2 PUSH5 0x6970667358 0x22 SLT KECCAK256 BASEFEE DUP12 0xA8 NUMBER DUP5 PUSH15 0x3BA74B084885213815410FC72ADB37 SLT SWAP5 0xC6 CODESIZE SWAP12 0xED SHR 0xBA CALLDATALOAD 0x5C DUP2 PUSH5 0x736F6C6343 STOP ADDMOD SMOD STOP CALLER "
				},
				"gasEstimates": {
					"creation": {
						"codeDepositCost": "854400",
						"executionCost": "890",
						"totalCost": "855290"
					},
					"external": {
						"createItem(string,uint256)": "infinite",
						"items(uint256)": "infinite",
						"triggerDelivery(uint256)": "infinite",
						"triggerPayment(uint256)": "infinite"
					}
				},
				"methodIdentifiers": {
					"createItem(string,uint256)": "8c551742",
					"items(uint256)": "bfb231d2",
					"triggerDelivery(uint256)": "cd31831e",
					"triggerPayment(uint256)": "800fb83f"
				}
			},
			"storageLayout": {
				"storage": [
					{
						"astId": 56,
						"contract": "contracts/Trigger.sol:ItemManager",
						"label": "items",
						"offset": 0,
						"slot": "0",
						"type": "t_mapping(t_uint256,t_struct(S_Item)51_storage)"
					},
					{
						"astId": 58,
						"contract": "contracts/Trigger.sol:ItemManager",
						"label": "itemIndex",
						"offset": 0,
						"slot": "1",
						"type": "t_uint256"
					}
				],
				"types": {
					"t_contract(Item)36": {
						"encoding": "inplace",
						"label": "contract Item",
						"numberOfBytes": "20"
					},
					"t_enum(SupplyChainState)40": {
						"encoding": "inplace",
						"label": "enum ItemManager.SupplyChainState",
						"numberOfBytes": "1"
					},
					"t_mapping(t_uint256,t_struct(S_Item)51_storage)": {
						"encoding": "mapping",
						"key": "t_uint256",
						"label": "mapping(uint256 => struct ItemManager.S_Item)",
						"numberOfBytes": "32",
						"value": "t_struct(S_Item)51_storage"
					},
					"t_string_storage": {
						"encoding": "bytes",
						"label": "string",
						"numberOfBytes": "32"
					},
					"t_struct(S_Item)51_storage": {
						"encoding": "inplace",
						"label": "struct ItemManager.S_Item",
						"members": [
							{
								"astId": 43,
								"contract": "contracts/Trigger.sol:ItemManager",
								"label": "_item",
								"offset": 0,
								"slot": "0",
								"type": "t_contract(Item)36"
							},
							{
								"astId": 45,
								"contract": "contracts/Trigger.sol:ItemManager",
								"label": "_identifier",
								"offset": 0,
								"slot": "1",
								"type": "t_string_storage"
							},
							{
								"astId": 47,
								"contract": "contracts/Trigger.sol:ItemManager",
								"label": "_itemPrice",
								"offset": 0,
								"slot": "2",
								"type": "t_uint256"
							},
							{
								"astId": 50,
								"contract": "contracts/Trigger.sol:ItemManager",
								"label": "_state",
								"offset": 0,
								"slot": "3",
								"type": "t_enum(SupplyChainState)40"
							}
						],
						"numberOfBytes": "128"
					},
					"t_uint256": {
						"encoding": "inplace",
						"label": "uint256",
						"numberOfBytes": "32"
					}
				}
			},
			"userdoc": {
				"kind": "user",
				"methods": {},
				"version": 1
			}
		}
	}
}